:1000000004308A00592C0000FF00030E8301A10078
:100010000A08A0008A010408A2007708A300780853
:10002000A4007908A5007A08A60003170D08031399
:10003000A70003170F080313A80003170C080313E6
:10004000A90003170E080313AA00831383128C3030
:100050008400001F2D280C1B5A288C308400001CA3
:1000600033280C185D288C308400801C39288C18AB
:100070006028220884002308F7002408F8002508D7
:10008000F9002608FA00270803178D000313280833
:1000900003178F000313290803178C0003132A0882
:1000A00003178E00031320088A00210E8300FF0E21
:1000B0007F0E09008A110A129B298A110A128528CB
:1000C0008A110A129028D327A029501DA012301996
:1000D0007510C32049005424CF24A023C9204E1DED
:1000E000A0123019751D2518B23ABA1230197500D0
:1000F0005424CF24A023C9204E1DA0123019751DF1
:100100002518B23ABA12301975008E010B308F00E3
:10011000DC308E000000AD0A0C108A110A1239285A
:10012000B10A8C108A110A1239288E30F70047085C
:10013000F8004608F900FA01F808031DA928790813
:10014000F800F9010830F702F808031DA928F701A3
:10015000B1280310F81BB028F90DF80DF703A928F2
:10016000F8130800460803197729D2004A08031932
:100170007729D202031CC1287F30D20703187729C0
:10018000C7288130D202031C772903197729520826
:10019000F700F801F901FA01D1014708D000D017A2
:1001A0004808CF004908CE001930D2004D08CE02D1
:1001B0000318EA280130CF020318EA28D0020318F6
:1001C000EA28D1020318EA28D10AD00ACF0A4D083A
:1001D000CE071C294C08CF02031805290130D00294
:1001E00003180529D10203180529D10AD00A4C08A1
:1001F000CF074D08CE07031C1C29CF0A031D1C295D
:10020000D00A031D1C29D10A1C294B088038D002B2
:1002100003181B290130D10203181B29D10A4B08EE
:100220008038D0074C08CF07031CF928D00A031DDB
:10023000F928D10AF9287A14D20B1F292A29031088
:10024000CE0DCF0DD00DD10D0310FA0DF90DF80D17
:10025000D30DD628531C32290310F80CF90CFA0CD4
:10026000D30C3529F70303197729D31B5E29031013
:10027000CE0DCF0DD00DD10D4D08CE0203184A2959
:100280000130CF0203184A29D00203184A29D102AB
:10029000031C6D294C08CF02031855290130D002E8
:1002A00003185529D102031C6D294B088038D00250
:1002B00003185E290130D102031C6D29FA0A031DBF
:1002C0006D29F90A031D6D29F80A031D6D29F70A26
:1002D00003197729F80CF90CFA0C4708D2004B08DF
:1002E000D206D21F7529F8177B29F8137B29F7014D
:1002F000F801F901FA0108008E30F7004408F7020E
:100300004508F9004608F800F917F708031993297A
:100310000310F908031D8F29F80803199329F90C14
:10032000F80CF70B8829C51F9A29F809F909F80A6A
:100330000319F90A08009F189B291E08F900831663
:100340001E08F80079088312C5007808C400450823
:10035000C7007808C60095207A08C9007908C80047
:100360007808C7007708C600AA30CD00F130CC006D
:100370000230CB008030CA00B2207A08C70079086A
:10038000C6007808C5007708C4007C217908B6004B
:100390007808B5009F18CA291E08F90083161E08A0
:1003A000F80079088312C5007808C4004508C70022
:1003B0007808C60095207A08C9007908C80078082E
:1003C000C7007708C600AA30CD00F130CC0002305B
:1003D000CB008030CA00B2207A08C7007908C60076
:1003E0007808C5007708C4007C217908B80078082F
:1003F000B7000C138A110A1239280330C302031CF8
:100400000B2A433084008313000803190B2A092A9E
:10041000092A800B082A08002B132B088316870053
:1004200083120713AB122B088316870083128712DF
:1004300083168801831239088800AB132B088316B2
:10044000870083128717AB132B088316870083124C
:100450008713C830C300FD2108003930840083139E
:1004600000080319402A0630F800F701F70B362A76
:10047000F80B352A7B30F700F70B3C2A800B332A28
:1004800008003830B9000C220530B9002D220C309C
:10049000B9000C220130B9000C220230B9002D2223
:1004A0008A110A12842C2B132B08831687008312BF
:1004B0000713AB122B088316870083128716831647
:1004C0008801831242088800AB132B08831687002B
:1004D00083128717AB132B088316870083128713A9
:1004E000C830C300FD2108000B08BA008B13831627
:1004F00003178C170C140000000083120313BA1B9F
:100500008B170318AB2A03170C087F390313BA00A3
:1005100003170D080313BB0003170F080313BC00D8
:100520003A08C20053223B0803178D0003133C080E
:1005300003178F0003130B08BD008B1383160317DB
:100540008C170C140000000083120313BD1B8B17C3
:10055000B90BAB2ACA2A03170C0D0E0D7F390313F2
:10056000BA0003170D080313BB0003170F0803138A
:10057000BC003A08C20053223B0803178D00031346
:100580003C0803178F008D0A03198F0A0310031309
:10059000B90B742A08003C08F8013B020318D32A5F
:1005A0003B08F700DF2AF7010830BD00BB0DF70D4F
:1005B0003C0877020318F700F80DBD0BD62A080097
:1005C00078083908BB006430BC00CB227708B9003A
:1005D00078083030031DF32ABA1CFA2ABA19FA2A0D
:1005E0003A1A2030F62ABA113A123A14F807780863
:1005F000C20053223908BB000A30BC00CB22770866
:10060000B90078083030031D0B2BBA190F2B3A1C98
:100610000F2B3A1A2030F8077808C20053223030E6
:10062000B9073908C200532208000108AC002C08A1
:100630000C3C03181D2B013081008030B9000C22C6
:10064000633003178D0000308F0003100730031351
:10065000B90074222C08B9000130BA00E0226830D9
:1006600003178D0000308F00031404300313B9000A
:1006700074228A110A12B92C2D080A3C031D522B30
:10068000AE0AAD012E083B3C0318522BAE01AF0A57
:100690002F083B3C0318522BAF01B00A3008173C1F
:1006A000031CB001C030B9000C226B3003178D0061
:1006B00000308F0003100B300313B9007422300890
:1006C000B9000130BA00E0223A30C20053222F08AC
:1006D000B9000130BA00E0223A30C20053222E089D
:1006E000B9000130BA00E0228A110A12BA2C31088E
:1006F000C73C03188E2BB20AC830B10232083B3C0B
:1007000003188E2BB201B30A33083B3C03188E2B1F
:10071000B301B40A3408173C031CB4019430B90087
:100720000C22783003178D0000308F0003100B303F
:100730000313B90074223408B9000130BA00E02272
:100740003A30C20053223308B9000130BA00E02227
:100750003A30C20053223208B9000130BA00E02218
:100760008A110A12BB2CC1010408C0004110831B6E
:1007700041143A0EF038BC00BC07E23EBD00323EE8
:10078000BF003A080F39BD07BD07BF07E93EBE00ED
:10079000BE07BE07390E0F39BE07BF07BE0DBF0D1E
:1007A000BF09BF0D39080F39BF07BC0D0730BB00AB
:1007B0000A30BF07BE03031CD92BBE07BD03031CB1
:1007C000DD2BBD07BC03031CE12BBC07BB03031CD3
:1007D000E52B3B308400831307304005401384072A
:1007E0003F300402031940170008F700031D002CD6
:1007F000401B002C401A122CC019002C2030032C56
:10080000C01540123030F707BA010408B9003A1099
:10081000831B3A147708C2005322390884008313DB
:100820003A188317840A401FF02B08001430F80090
:100830001F08C33978049F000130B9002D229F148E
:10084000D430B9000C220B3084003608BA003508C9
:10085000B900B3232030C20053224330C2005322D8
:10086000D630B9000C22DF30C20053221830F80015
:100870001F08C33978049F000130B9002D229F144E
:10088000E430B9000C220B3084003808BA00370875
:10089000B900B3232030C20053224330C200532298
:1008A000E630B9000C22DF30C20053228A110A124E
:1008B000BC2C03081F398300FF30AB00AE01AF0131
:1008C000B001B201B301B401831603170908C0399E
:1008D000890003131F129F12003003178800831230
:1008E0008701880189018313FF3083160313850074
:1008F000003087008312AB00831688000914891426
:10090000091589158312412A83160108C039303828
:10091000810083128101353090008E010B308F00F1
:10092000DC308E00000083160C147830F800063896
:100930008312920062308316920083129101831613
:100940008C1483121F139F1783169F1783121F1473
:10095000831603170908C039890003131F129F1259
:1009600060300317880003130C17C03083128B0408
:0C097000152B3C2B772B162CB82C6300A9
:04400E00E22FFF3F5F
:00000001FF
;PIC16F887
;CRC=DCA7  CREATED="10-Nov-23 14:44"
