:1000000004308A00992C00000A108A100A11820715
:10001000EF34DF34BF347F340A108A100A118207AC
:10002000C034F934A434B034993492348234F8347E
:1000300080349034C724CF24202441273A10251837
:10004000B23A0000D3204E105024C126201DA01229
:1000500030197510C3204900CE20CE23A029D52009
:10006000541DA012B0197510C3306900D3204E1072
:100070005024C126201DA01230197510C32049003C
:100080003330840083130008031953280230F8002A
:10009000F701F70B4928F80B48289730F700F70BC2
:1000A0004F28800B462808003A185828071259286C
:1000B000071620122008831687008312BA186228B8
:1000C000871263288716A0122008831687008312E0
:1000D0003A196C2807136D28071720132008831678
:1000E00087008312BA197628871377288717A013F9
:1000F0002008831687000000831209158316091152
:10010000812882288312091183160911831208009D
:10011000BB01201620088316870000308312071ABF
:100120000130BB04A016200883168700003083121C
:10013000871A0130F7000310F70D7708BB0420176A
:1001400020088316870000308312071B0130F70058
:10015000F70DF70DFC30F7057708BB04A017200852
:100160008316870000308312871B0130F700F70DDC
:10017000F70DF70DF830F7057708BB043B08F800DA
:1001800008008316091109108910831209108316BB
:100190000910071687160717871783128914831605
:1001A00089100000831209158316091100008312BB
:1001B00088207808BA0009118316091100008312FB
:1001C000091583160911E428831288207808B900DC
:1001D0000911831609118312201220088316870043
:1001E0008312A01220088316870083122013200890
:1001F000831687008312A0132008831687008312BA
:100200003A0EF700F030F70577083904F80078085F
:10021000B900B91F0D298316C928B708031D122973
:10022000091013290914831609100000831289107C
:100230008316891000008312091183160911831295
:10024000380EB9000F30B9053908BA005420380803
:100250000F39B900BA00542008002830AE000C3025
:10026000AF000130B0000630B1000911831609114A
:1002700083120910831609108312891083168910BE
:10028000831220122008831687008312A0122008F0
:100290008316870083122013200883168700831299
:1002A000A0132008831687000911091089100F3048
:1002B0008312B30040200130AD002D08033C031C25
:1002C00069290330BA0054200530B3004020AD0A3C
:1002D0005D290230BA0054200530B3004020AD0142
:1002E0002D08033C031C80292E302D078400831326
:1002F0000008B200B7013208B800C120AD0A702969
:100300008A110A12DC2C340B862989294030B50069
:100310008A29B50101303302B50735088038B600A7
:10032000B7013608B800C12008003208073A03199F
:10033000A3290B3A0319A829063A0319B029023A4E
:100340000319B629BB290130B300B4008321C029A9
:10035000B7010130B800C1200230B3004020C029ED
:100360000130B3000230B4008321C029B70110303E
:10037000B800C120C0290130B7003208B800C12040
:1003800008000B08AF008B13831603178C170C148F
:100390000000000083120313AF1B8B170318F8290A
:1003A00003170C087F390313AF0003170D0803135D
:1003B000B00003170F080313B1002F08B2009521F6
:1003C000300803178D000313310803178F00031340
:1003D0000B08B2008B13831603178C170C14000044
:1003E000000083120313B21B8B17AE0BF829172AD8
:1003F00003170C0D0E0D7F390313AF0003170D0803
:100400000313B00003170F080313B1002F08B20045
:100410009521300803178D000313310803178F004F
:100420008D0A03198F0A03100313AE0BC1290800AC
:100430003108F80130020318202A3008F7002C2A6E
:10044000F7010830B200B00DF70D3108770203183C
:10045000F700F80DB20B232A080078082E08B00028
:100460006430B10018227708AE0078083030031DE0
:10047000402AAF1C472AAF19472A2F1A2030432A97
:10048000AF112F122F14F8077808B20095212E080B
:10049000B0000A30B10018227708AE00780830307A
:1004A000031D582AAF195C2A2F1C5C2A2F1A2030F2
:1004B000F8077808B20095213030AE072E08B20058
:1004C00095210800FF30AD00AE012E08033C031C4F
:1004D000A82A2E080420AF008316860183122F0855
:1004E000860083160614831206187C2A2E0DAD0092
:1004F000AD0DFC30AD05712A831686148312861863
:100500008A2A2E0DF700F70DFC30F7057708013E1B
:10051000AD007C2A8316061583120619982A2E0D23
:10052000F700F70DFC30F7057708023EAD008A2A88
:100530008316861583128619A62A2E0DF700F70D4D
:10054000FC30F7057708033EAD00982AAE0A652A0D
:100550002D08F8007808A600A608031DB12AA701F7
:10056000A80A260BB62A0130A700A80A2608023CD2
:10057000031DBD2A0230A700A80A2608033C031D5C
:10058000C42A0330A700A80A2608043C031DCB2A6E
:100590000430A700A80A2608053C031DD22A05300E
:1005A000A700A80A2608063C031DD92A0630A70082
:1005B000A80A2608073C031DE02A0730A700A80A5E
:1005C0002608083C031DE72A0830A700A80A2608C9
:1005D000093C031DEE2A0930A700A80A8A110A1255
:1005E000FA2C0B1D0F2B64308100A40A0B11240878
:1005F000323C031D0F2BA401A30A23083B3C031824
:100600000F2BA301A20A22083B3C03180F2BA201C7
:10061000A10A2108173C03180F2BA201A1012108F0
:10062000B0000A30B10018227808B0000A30B100DA
:10063000182277080C20AD008316860183122D083E
:10064000860083160510831205100130B300402088
:1006500083160510831205142108B0000A30B1007A
:10066000182277080C20AD008316860183122D080E
:10067000860083168510831285100130B300402058
:1006800083168510831285142208B0000A30B10049
:1006900018227808B0000A30B100182277080C2020
:1006A000AD008316860183122D08860083168511FE
:1006B000831285110130B300402083168511831207
:1006C00085152208B0000A30B100182277080C20E6
:1006D000AD008316860183122D088600831605124D
:1006E000831205120130B3004020831605128312D5
:1006F00005162308B0000A30B10018227808B000AF
:100700000A30B100182277080C20AD00831686014C
:1007100083122D08860083160513831205130130FA
:10072000B300402083160513831205172308B00079
:100730000A30B100182277080C20AD00831686011C
:1007400083122D08860083168513831285130130CA
:10075000B300402083168513831285178316860104
:10076000BF308312860083160511831205110130F4
:10077000B3004020831605118312051583168601E8
:10078000BF308312860083168512831285120130D2
:10079000B300402083168512831285168A110A122F
:1007A000FB2C280BFD2B2708AE000A30AF00F70109
:1007B000F8012E0803102F18F707F70CF80CAF18E4
:1007C000F707F70CF80C2F19F707F70CF80CAF190F
:1007D000F707F70CF80C2F1AF707F70CF80CAF1AFD
:1007E000F707F70CF80C2F1BF707F70CF80CAF1BEB
:1007F000F707F70CF80C7808AA002808023C031D3C
:10080000042C2708AA07A8010130B3000230B40065
:1008100083211A3003178D0000308F0003100A3037
:100820000313AE00C1212A08AE000130AF002D2213
:10083000A015200883168700831287193D2C1430D9
:10084000B3004020A0152008831687008312871963
:100850003D2CA90803192E2C00302F2C0130A900A3
:10086000290B352C07309000362C9001A01520085C
:10087000831687008312871D362C0F08FA000E0896
:10088000F7000F087A02031D3D2C7708A500250804
:100890002D020318522C8E018F0101308E000000B2
:1008A0002D08AB070130B300B400832122300317B9
:1008B0008D0000308F0003100B300313AE00C121F8
:1008C0002508AE000130AF002D22293003178D001E
:1008D00000308F00031404300313AE00C1218A11CD
:1008E0000A12FE2C23083B3C0318782C2B08AC0082
:1008F0001530B3000130B40083212C3003178D0074
:1009000000308F0003100B300313AE00C1212C0800
:10091000AE000330AF002D22333003178D000030BE
:100920008F00031404300313AE00C1218A110A1290
:10093000FF2C03081F398300713083168F0090014C
:100940000F08FF308312A000A101A2013730A300DD
:10095000A501A801A9011430AA00AB01AC018316BE
:1009600003170908C039890003131F129F120030B2
:1009700003178800831287018801890183130030DF
:100980008316031385008600091089100911891147
:100990000F3087008312A000FF3083168800010803
:1009A000C0390738810064308312810090018E01C4
:1009B0008F018E0100002D290130B300B400832186
:1009C000363003178D0000308F0003100B300313F7
:1009D000AE00C1212508AE000130AF002D223D3010
:1009E00003178D0000308F00031404300313AE0092
:1009F000C121622AF12A2A08AD00D12B722CF92CD0
:020A0000630091
:04400E00E42FFF3F5D
:00000001FF
;PIC16F887
;CRC=8B25  CREATED="25-Oct-23 02:43"
