:1000000003308A00832B00000A108A100A1182072D
:10001000C034F934A434B034993492348234F8348E
:1000200080349034D330EE3320226137A018321060
:10003000CC224400D4307410C4306E103119202604
:1000400045220001D330EE332022E9316810311906
:10005000202645220001D4307410C4346334A01823
:100060003210CC224400D330EE3320226137A01866
:100070003210CC224400D4307410C4306E103119C8
:10008000202645220001D330EE332022E9316810CA
:100090003119202645220001D4307410C434633451
:1000A000A0183210CC2244002013200883168700A9
:1000B00083120713A0122008831687008312871269
:1000C0008316860183122D088600A013200883164C
:1000D000870083128717A0132008831687008312D6
:1000E00087138530F700F70B73280800323084003F
:1000F00083130008031989280230F800F701F70B71
:100100007F28F80B7E289730F700F70B8528800BA7
:100110007C2808003830AD0054200530B20076202D
:100120000C30AD0054200130AD0054200230B2003C
:1001300076200800201320088316870083120713F7
:10014000A012200883168700831287168316860163
:10015000831230088600A0132008831687008312BC
:100160008717A01320088316870083128713853012
:10017000F700F70BB92808000B08AD008B138316A6
:1001800003178C170C140000000083120313AD1B1F
:100190008B1703170C087F39031910290313AD00BF
:1001A00003170D080313AE0003170F080313AF0066
:1001B0002D08B0009A202E0803178D0003132F0876
:1001C00003178F0003130B08B0008B13831603175C
:1001D0008C170C140000000083120313B01B8B1744
:1001E00003170C0D0E0D7F39031910290313AD00F1
:1001F00003170D080313AE0003170F080313AF0016
:100200002D08B0009A202E0803178D0003132F0825
:1002100003178F008D0A03198F0A0313BC280317D5
:1002200003130800831817293D3084008313F70156
:10023000F801F901FA01BD01BE01BF01C0013C088E
:100240003B043A043904031955292030C100031036
:10025000B50DB60DB70DB80DBD0DBE0DBF0DC00D62
:100260003C084002031D3E293B083F02031D3E2976
:100270003A083E02031D3E2939083D02031C4F295E
:100280003908BD023A08031C3A0FBE023B08031CA2
:100290003B0FBF023C08031C3C0FC0020314F70DC8
:1002A000F80DF90DFA0DC10B27293D088000840ACD
:1002B0003E088000840A3F088000840A40088000CD
:1002C00008008A208130AD005420123003178D00C1
:1002D00000308F000313BC20C130AD0054201A3011
:1002E00003178D0000308F000313BC209530AD0044
:1002F0005420223003178D0000308F000313BC20E0
:10030000D530AD0054202B3003178D0000308F0006
:100310000313BC202A0BDA298030AD0054207E3034
:10032000B0009A202708AE002608AD002E08B000C5
:100330002D08AF000C30A100A11BDA290F30A3005B
:10034000FF30A200A401A5012108B1000319AF29C3
:100350000310A50CA40CA30CA20CB10BA8298316A6
:100360008501831222088500B5010030A0008316A4
:1003700087018312230887003008B100B10AB10356
:100380000319C629FF30B2007620BF292F08B2001A
:100390007620831609158312091DD729831689141F
:1003A0008312891CD729831609148312091CDA29A0
:1003B000A1039C292A08023C031D312AC030AD004C
:1003C00054207E30B0009A202708AE002608AD00E9
:1003D0002E08B0002D08AF000C30A100A11B312A5F
:1003E0000F30FA00FF30F9002108F7000319FD294A
:1003F0000310FA0CF90CF70BF8297908FF3AA20060
:10040000FF307A06A300FF30A400A5008316850103
:10041000831222088500B5010030A00083168701F1
:100420008312230887003008B100B10AB103031911
:100430001D2AFF30B2007620162A2F08B20076203F
:10044000831609158312091D2E2A83168914831217
:10045000891C2E2A831609148312091C312AA10330
:10046000EE292A08033C031D822A9430AD00542053
:100470007E30B0009A202708AE002608AD002E0876
:10048000B0002D08AF000C30A100A11B822A08305B
:10049000A300A201A401A5012108B1000319572A54
:1004A0000310A50CA40CA30CA20CB10B502A8316AC
:1004B0008501831222088500B5010030A000831653
:1004C00087018312230887003008B100B10AB10305
:1004D00003196E2AFF30B2007620672A2F08B20077
:1004E0007620831609158312091D7F2A8316891425
:1004F0008312891C7F2A831609148312091C822AFD
:10050000A103452A2A08043C031DD82AD430AD0093
:1005100054207E30B0009A202708AE002608AD0097
:100520002E08B0002D08AF000C30A100A11BD82A66
:100530000830FA00F9012108F7000319A42A031072
:10054000FA0CF90CF70B9F2A7908FF3AA200FF304A
:100550007A06A300FF30A400A5008316850183124C
:1005600022088500B5010030A000831687018312A0
:10057000230887003008B100B10AB1030319C42A67
:10058000FF30B2007620BD2A2F08B20076208316F5
:1005900009158312091DD52A831689148312891C13
:1005A000D52A831609148312091CD82AA103962A76
:1005B00008008316091583120919F32A1430B200B2
:1005C00076208316091583120919F32AAA0A2A0824
:1005D000043C0318ED2A0130AA0061218316091595
:1005E0008312091DEE2A83168914831289180A2B97
:1005F0001430B200762083168914831289180A2BCE
:10060000AA0B042B0430AA006121831689148312DB
:10061000891C052B8316091483120918802B1430AA
:10062000B20076208316091483120918802B6430D7
:10063000A607003003180130A70700300318013067
:10064000A807003003180130A907A908031D362B9D
:10065000A808031D362B2708023C03183B2BFF3A42
:10066000031D362B2608843C03183B2BA901A80147
:10067000A7016430A60083102908B8002808B70035
:100680002708B6002608B500BC01BB01BA016430DA
:10069000B90012217A08B0007908AF007808AE00DE
:1006A0007708AD0083143130840083137A08B800D2
:1006B0007908B7007808B6007708B500BC01BB011F
:1006C000BA010A30B90012213408B0003308AF0073
:1006D0003208AE003108AD00F7003208F8003308E8
:1006E000F9003408FA0077080420B5008316880161
:1006F000831235088800831609148312091C7B2B8A
:100700008A110A122D2C03081F39830071308316B9
:100710008F0090010F08FF308312A000A901A801EB
:10072000A7016430A6000130AA00AC01AB0183161A
:1007300003170908C039890003131F129F120030E4
:100740000317880083128701880189018313003011
:10075000831603138500860087008312A00083168A
:1007600088000914891409158915850183128501EA
:10077000A00083168701831287018A208130AD0093
:100780005420333003178D0000308F000313BC203A
:10079000C130AD0054203B3003178D0000308F0076
:1007A0000313BC209530AD005420433003178D0057
:1007B00000308F000313BC20D530AD0054204C30E6
:1007C00003178D0000308F000313BC208030AD0074
:1007D00054207E30B0009A2083102908B8002808E1
:1007E000B7002708B6002608B500BC01BB01BA0156
:1007F0006430B90012217A08B0007908AF00780897
:10080000AE007708AD0083143130840083137A087A
:10081000B8007908B7007808B6007708B500BC01C1
:10082000BB01BA010A30B90012213408B000330804
:10083000AF003208AE003108AD00F7003208F80012
:100840003308F9003408FA0077080420B50083164D
:100850008801831235088800D92A61212C2C630075
:04400E00E42FFF3F5D
:00000001FF
;PIC16F887
;CRC=ED82  CREATED="25-Oct-23 01:17"
