:1000000005308A00D62D0000C827202A45273A103F
:10001000D62A202AC9224E105024412A0000CD2978
:10002000532B3A10B218B11AB119B01C0001D320E9
:10003000CE23202A412A0001D320CE23202241278B
:10004000A029412747105024C1240001D320CE23EA
:1000500020224127A029412747105429C12400010B
:10006000D4205410C4204E10D320CE23202AD220D6
:100070004900D4205410C4204E10D320CE23202871
:10008000C8204900D320CE23202AD227CE232029DE
:100090004100D320CE232027C727C124202BC127EE
:1000A0000001D4205410CE23CF204910D6204F0079
:1000B000D420541054294F274710D2200001DA24AD
:1000C0004324202DC1210000D32720294127C42704
:1000D0004D1DA012EC3A0000D32720294127C42748
:1000E0004D1DA012EC3A0000C827202A45273A10DF
:1000F000D62A202AC9224E105024412A0001CD2997
:10010000532B3A10B218B11AB119B01C00014B248C
:100110004F274710C327202AD220CE23202AC820C9
:100120004900D32720294127C4274D1DA012EC3AAE
:1001300000002A132A088316870083120713AA12C5
:100140002A08831687008312871283168801831278
:1001500033088800AA132A0883168700831287179A
:10016000AA132A0883168700831287138530F700A5
:10017000F70BB828080033308400831300080319F4
:10018000CE280230F800F701F70BC428F80BC3287B
:100190009730F700F70BCA28800BC12808003830C9
:1001A000B30099200530B300BB200C30B300992078
:1001B0000130B30099200230B300BB2008002A139D
:1001C0002A088316870083120713AA122A088316A7
:1001D0008700831287168316880183123E088800E1
:1001E000AA132A088316870083128717AA132A08DE
:1001F00083168700831287138530F700F70BFE28DC
:1002000008000B08B3008B13831603178C170C140C
:100210000000000083120313B31B8B1703170C0895
:100220007F39031955290313B30003170D0803136E
:10023000B40003170F080313B5003308BE00DF2016
:10024000340803178D000313350803178F000313B9
:100250000B08B6008B13831603178C170C140000C1
:10026000000083120313B61B8B1703170C0D0E0D22
:100270007F39031955290313B30003170D0803131E
:10028000B40003170F080313B5003308BE00DF20C6
:10029000340803178D000313350803178F008D0AE8
:1002A00003198F0A03130129031703130800F80128
:1002B000F901F701FA013908031D6129380803190A
:1002C0007B291030BA000310B60DB70DF70DFA0DEB
:1002D00039087A02031D6E2938087702031C772932
:1002E0003808F702031CFA033908FA020314F80D60
:1002F000F90DBA0B632908003008B6002F08B500C5
:100300002E08B4002D08B3004130BA00C630B90041
:100310004E30B8006D30B7002030BF00BB01BC01CB
:10032000BD01BE013608FA003508F9003408F800AE
:100330003308F7000310771CAB293708BB073808D0
:100340000318380FBC0739080318390FBD073A08DE
:1003500003183A0FBE07BE0CBD0CBC0CBB0CFA0C4C
:10036000F90CF80CF70CBF0B9A2939307707AD0060
:100370007808AE00303003183130AE077908AF008E
:10038000003003180130AF077A08B00000300318BE
:100390000130B0072F08F7003008F800F901FA0122
:1003A0003008B5002F08B4003008B7002F08B60099
:1003B0007F30B900FF30B80057217708F8007A087D
:1003C000F90008000B08B6008B13831603178C176F
:1003D0000C140000000083120313B61B8B170318C4
:1003E000192A03170C087F390313B60003170D08E9
:1003F0000313B70003170F080313B8003608BE0035
:10040000DF20370803178D000313380803178F0008
:1004100003130B08B9008B13831603178C170C14E6
:100420000000000083120313B91B8B17B50B192AA8
:10043000382A03170C0D0E0D7F390313B60003176E
:100440000D080313B70003170F080313B80036088D
:10045000BE00DF20370803178D0003133808031789
:100460008F008D0A03198F0A03100313B50BE229BD
:100470000800BD010408BC003D10831B3D14360E6E
:10048000F038B800B807E23EB900323EBB0036088B
:100490000F39B907B907BB07E93EBA00BA07BA076F
:1004A000350E0F39BA07BB07BA0DBB0DBB09BB0D23
:1004B00035080F39BB07B80D0730B7000A30BB0746
:1004C000BA03031C5F2ABA07B903031C632AB907DE
:1004D000B803031C672AB807B703031C6B2A37301D
:1004E0008400831307303C053C1384073B3004022F
:1004F00003193C170008F700031D862A3C1B862AB7
:100500003C1A982ABC19862A2030892ABC153C122C
:100510003030F707B6010408B5003610831B3614D7
:100520007708BE00DF203508840083133618831750
:10053000840A3C1F762A0800CF208030B30099201F
:10054000043003178D0000308F0003130121C030E9
:10055000B30099200F3003178D0000308F00031374
:1005600001219430B3009920210BBD2A17300317C5
:100570008D0000308F00031301212108023C031D70
:10058000C82A1C3003178D0000308F00031301218F
:100590002108033C031DD32A263003178D000030A9
:1005A0008F00031301212108043C031DDE2A303093
:1005B00003178D0000308F00031301212108053C33
:1005C000031DE92A393003178D0000308F00031313
:1005D00001212108063C031DF42A423003178D0037
:1005E00000308F00031301212108073C031DFF2A5F
:1005F000493003178D0000308F00031301212108BB
:10060000083C031D0A2B513003178D0000308F006A
:10061000031301212108093C031D152B5830031732
:100620008D0000308F000313012121080A3C031DB7
:10063000202B5F3003178D0000308F000313012142
:1006400008008316891483128918622B1430B300B2
:10065000BB208316891483128918622BA10AA11B5F
:10066000372B21080A3C0318372B0130A1009C22AC
:10067000D430B30099207C217908B4007808B30005
:100680007908B7007808B600B9016430B80057217E
:100690007708B3007A08B400643003178D00003087
:1006A0008F0003100B300313B500E22110308400DB
:1006B0003408B6003308B500392283168914831232
:1006C000891C5D2B8316091583120919A32B14307D
:1006D000B300BB208316091583120919A32BA103AC
:1006E000A11B762B2108003C031C782B0A30A100AB
:1006F0009C22D430B30099207C217908B40078087A
:10070000B3007908B7007808B600B9016430B800C2
:1007100057217708B3007A08B4006C3003178D00B6
:1007200000308F0003100B300313B500E2211030AE
:1007300084003408B6003308B50039228316091541
:100740008312091D9E2B8A110A12502E83168501D1
:10075000FF30831285008316860183128600C8301D
:10076000B300BB20831689148312891CBC2B83160B
:10077000091583120919BC2B831685018312850183
:100780008316860183128601831689148312891CBD
:10079000CE2B8316091583120919CE2B8A110A1242
:1007A000532E1030A000A01BFF2BFF30A300A2008F
:1007B000A401A5012008B3000319E52B0310A50C23
:1007C000A40CA30CA20CB30BDE2B831685018312A1
:1007D00022088500B701831686018312230886004C
:1007E0003230B300BB20831689148312891CFC2B82
:1007F000831609158312091DFF2BA003D32B8A1121
:100800000A12572E1030A000A01B302CFF30A3007E
:10081000A200A401A5012008B3000319162C03109F
:10082000A20DA30DA40DA50DB30B0F2C83168501EE
:10083000831222088500B7018316860183122308DC
:1008400086003230B300BB20831689148312891CC2
:100850002D2C831609158312091D302CA003042C9E
:100860008A110A125B2E1030A000A01B662CFF30EC
:10087000FA00F9002008F7000319432C0310F90DC2
:10088000FA0DF70B3E2C7908FF3AA200FF307A06EA
:10089000A300FF30A400A50083168501831222085F
:1008A0008500B70183168601831223088600323043
:1008B000B300BB20831689148312891C632C831612
:1008C00009158312091D662CA003352C8A110A1202
:1008D0005F2E1030A000A01B9C2CFF30FA00F90006
:1008E0002008F7000319792C0310FA0CF90CF70B08
:1008F000742C7908FF3AA200FF307A06A300FF307B
:10090000A400A50083168501831222088500B70183
:10091000831686018312230886003230B300BB2081
:10092000831689148312891C992C83160915831246
:10093000091D9C2CA0036B2C8A110A12632E08300F
:10094000A000A01BDC2CFF30A200A301A401A50184
:100950002008B3000319B32C0310A20DA30DA40D9E
:10096000A50DB30BAC2CFF30A600A701A801A9016F
:100970002008B3000319C32C0310A90CA80CA70C62
:10098000A60CB30BBC2C83168501831222088500AC
:10099000831686018312260886003230B300BB20FE
:1009A000831689148312891CD92C83160915831286
:1009B000091DDC2CA003A12C8A110A12672E083015
:1009C000A000A01B1C2DFF30A200A301A401A501C3
:1009D0002008B3000319F32C0310A50CA40CA30CDE
:1009E000A20CB30BEC2CFF30A600A701A801A901B3
:1009F0002008B3000319032D0310A60DA70DA80DA1
:100A0000A90DB30BFC2C83168501831222088500E7
:100A1000831686018312260886003230B300BB207D
:100A2000831689148312891C192D831609158312C4
:100A3000091D1C2DA003E12C8A110A126B2E08300F
:100A4000A000A01B5F2DFF30F7002008F80003195D
:100A50002D2D0310F70CF80B292D7708FF3AA20073
:100A6000A301A303FF30A400A500F7002008F800AD
:100A700003193E2D0310F70DF80B3A2D7708FF3AB6
:100A8000A600A701A703FF30A800A90083168501CF
:100A900083122208850083168601831226088600A9
:100AA0003230B300BB20831689148312891C5C2D5D
:100AB000831609158312091D5F2DA003212D8A11AC
:100AC0000A126F2E0830A000A01BA22DFF30F700E5
:100AD0002008F8000319702D0310F70DF80B6C2D8A
:100AE0007708FF3AA200A301A303FF30A400A500EA
:100AF000F7002008F8000319812D0310F70CF80BFC
:100B00007D2D7708FF3AA600A701A703FF30A800B4
:100B1000A9008316850183122208850083168601A9
:100B20008312260886003230B300BB208316891456
:100B30008312891C9F2D831609158312091DA22D6E
:100B4000A003642D8A110A12732E1030A000A01B7E
:100B5000D32DAA30A300A200A401A5012008B30050
:100B60000319B92D0310A50CA40CA30CA20CB30BF4
:100B7000B22D83168501831222088500B7018316E2
:100B800086018312230886006430B300BB208316DD
:100B900089148312891CD02D831609158312091D0F
:100BA000D32DA003A72D8A110A12772E03081F390F
:100BB0008300713083168F0090010F088312A1010A
:100BC000FF30AA00B201B101831603170908C0392A
:100BD000890003131F129F1200300317880083122D
:100BE00087018801890183130313AB01AC01003035
:100BF00083168500860087008312AA00831688006A
:100C00000914891409158915850183128501831634
:100C1000860183128601CF208030B3009920743082
:100C200003178D0000308F0003130121C030B30083
:100C300099207F3003178D0000308F0003130121AE
:100C40009430B3009920873003178D0000308F0057
:100C500003130121D430B30099207C217908B4001A
:100C60007808B3007908B7007808B600B901643095
:100C7000B80057217708B3007A08B4009130031701
:100C80008D0000308F0003100B300313B500E221FC
:100C9000103084003408B6003308B5003922212B07
:100CA000210B532EA62B2108023C0319D12B21081E
:100CB000033C0319022C2108043C0319332C21089E
:100CC000053C0319692C2108063C03199F2C2108B7
:100CD000073C0319DF2C2108083C03191F2D2108AC
:100CE000093C0319622D21080A3C0319A52D4F2E3A
:020CF00063009F
:04400E00E42FFF3F5D
:00000001FF
;PIC16F887
;CRC=9042  CREATED="18-Oct-23 10:10"
