:1000000002308A00812A00002B308400831300080C
:10001000031917280230F800F701F70B0D28F80B29
:100020000C289730F700F70B1328800B0A280800DC
:10003000831689148312891833281430AB000420E6
:1000400083168914831289183328A10AA11B2E282C
:1000500021080A3C03182E280130A10083168914B8
:100060008312891C2E2883160915831209194E281C
:100070001430AB00042083160915831209194E2889
:10008000A103A11B47282108003C031C49280A3072
:10009000A100831609158312091D49288A110A1225
:1000A000B32A83168501FF308312850083168601EB
:1000B00083128600C830AB00042083168914831293
:1000C000891C672883160915831209196728831666
:1000D00085018312850183168601831286018316AA
:1000E00089148312891C792883160915831209192A
:1000F00079288A110A12B62A1030A000A01BAA285B
:10010000FF30A300A200A401A5012008AB00031941
:1001100090280310A50CA40CA30CA20CAB0B8928EF
:1001200083168501831222088500AF01831686019C
:100130008312230886003230AB0004208316891412
:100140008312891CA728831609158312091DAA2862
:10015000A0037E288A110A12BA2A1030A000A01B20
:10016000DB28FF30A300A200A401A5012008AB00FA
:100170000319C1280310A20DA30DA40DA50DAB0BEF
:10018000BA2883168501831222088500AF018316E1
:1001900086018312230886003230AB0004208316C8
:1001A00089148312891CD828831609158312091D06
:1001B000DB28A003AF288A110A12BE2A1030A00043
:1001C000A01B1129FF30FA00F9002008F7000319DD
:1001D000EE280310F90DFA0DF70BE9287908FF3A1C
:1001E000A200FF307A06A300FF30A400A50083160A
:1001F0008501831222088500AF01831686018312D0
:10020000230886003230AB00042083168914831241
:10021000891C0E29831609158312091D1129A003B3
:10022000E0288A110A12C22A1030A000A01B472918
:10023000FF30FA00F9002008F70003192429031001
:10024000FA0CF90CF70B1F297908FF3AA200FF30CE
:100250007A06A300FF30A400A5008316850183124F
:1002600022088500AF0183168601831223088600C9
:100270003230AB000420831689148312891C442970
:10028000831609158312091D4729A00316298A110F
:100290000A12C62A0830A000A01B8729FF30A2003E
:1002A000A301A401A5012008AB0003195E290310D6
:1002B000A20DA30DA40DA50DAB0B5729FF30A60071
:1002C000A701A801A9012008AB0003196E2903109A
:1002D000A90CA80CA70CA60CAB0B672983168501EB
:1002E0008312220885008316860183122608860061
:1002F0003230AB000420831689148312891C8429B0
:10030000831609158312091D8729A0034C298A1118
:100310000A12CA2A0830A000A01BC729FF30A20079
:10032000A301A401A5012008AB0003199E29031015
:10033000A50CA40CA30CA20CAB0B9729FF30A600B4
:10034000A701A801A9012008AB000319AE290310D9
:10035000A60DA70DA80DA90DAB0BA7298316850126
:1003600083122208850083168601831226088600E0
:100370003230AB000420831689148312891CC429EF
:10038000831609158312091DC729A0038C298A1118
:100390000A12CE2A0830A000A01B0A2AFF30F7005C
:1003A0002008F8000319D8290310F70CF80BD429FA
:1003B0007708FF3AA200A301A303FF30A400A50021
:1003C000F7002008F8000319E9290310F70DF80BCE
:1003D000E5297708FF3AA600A701A703FF30A80088
:1003E000A9008316850183122208850083168601E1
:1003F0008312260886003230AB000420831689144D
:100400008312891C072A831609158312091D0A2ADB
:10041000A003CC298A110A12D22A0830A000A01BFE
:100420004D2AFF30F7002008F80003191B2A03109B
:10043000F70DF80B172A7708FF3AA200A301A303D0
:10044000FF30A400A500F7002008F80003192C2AAB
:100450000310F70CF80B282A7708FF3AA600A7012B
:10046000A703FF30A800A900831685018312220884
:100470008500831686018312260886003230AB0081
:100480000420831689148312891C4A2A83160915AD
:100490008312091D4D2AA0030F2A8A110A12D62A97
:1004A0001030A000A01B7E2AAA30A300A200A40145
:1004B000A5012008AB000319642A0310A50CA40CA5
:1004C000A30CA20CAB0B5D2A8316850183122208B4
:1004D0008500AF01831686018312230886006430ED
:1004E000AB000420831689148312891C7B2A83168F
:1004F00009158312091D7E2AA003522A8A110A12A5
:10050000DA2A03081F398300713083168F009001A7
:100510000F088312A101FF30AA00831603170908F0
:10052000C039890003131F129F120030031788007F
:100530008312870188018901831300308316031316
:100540008500860087008312AA008316880009149C
:100550008914091589158501831285018316860181
:10056000831286011828210BB62A51282108023C43
:1005700003197C282108033C0319AD282108043CF9
:100580000319DE282108053C031914292108063C1B
:1005900003194A292108073C03198A292108083C24
:1005A0000319CA292108093C03190D2A21080A3C0C
:0805B0000319502AB22A63006E
:04400E00E42FFF3F5D
:00000001FF
;PIC16F887
;CRC=B4FF  CREATED="11-Oct-23 11:45"
