:1000000000308A00E92800004324D521202141271F
:10001000A0214F10CD275410CE23C12C0000321840
:10002000AF183000D62A4910D622202B4110C82004
:100030004E242028C82A43000330A702031C2A2884
:10004000273084008313000803192A282828282829
:10005000800B2728080020132008831687008312AE
:100060000713A012200883168700831287128316B5
:100070008801831223088800A013200883168700B4
:1000800083128717A0132008831687008312871313
:10009000C830A7001C200800233084008313000808
:1000A00003195F280630F800F701F70B5528F80B05
:1000B00054287B30F700F70B5B28800B5228080090
:1000C0003830A3002B200530A3004C200C30A300B7
:1000D0002B200130A3002B200230A3004C208A11DA
:1000E0000A120A2920132008831687008312071397
:1000F000A0122008831687008312871683168801B2
:10010000831226088800A013200883168700831214
:100110008717A01320088316870083128713C8301F
:10012000A7001C2008000B08A3008B1383160317DD
:100130008C170C140000000083120313A31B8B17F1
:1001400003170C087F390319E7280313A3000317CB
:100150000D080313A40003170F080313A5002308B9
:10016000A6007220240803178D0003132508031727
:100170008F0003130B08A6008B13831603178C172D
:100180000C140000000083120313A61B8B17031727
:100190000C0D0E0D7F390319E7280313A300031775
:1001A0000D080313A40003170F080313A500230869
:1001B000A6007220240803178D00031325080317D7
:1001C0008F008D0A03198F0A031393280317031353
:1001D000080003081F398300FF30A000A201A1011D
:1001E000831603170908C039890003131F129F12D1
:1001F0000030031788008312870188018901831367
:1002000000308316031387008312A0008316880032
:10021000831260288030A3002B20043003178D0048
:1002200000308F0003139320C830A3002B200F3021
:1002300003178D0000308F00031393209530A30027
:100240002B20123003178D0000308F0003139320F2
:0A025000D430A3002B202B296300FB
:04400E00E22FFF3F5F
:00000001FF
;PIC16F887
;CRC=DBA1  CREATED="20-Oct-23 09:31"
