:1000000003308A00FE2B0000D327A0294127202897
:10001000C8204D1DA01230197510C320490054246A
:10002000CF24A023C9204E1DA0123019751D2518FC
:10003000B23ABA1230197500C420CE2320225527B7
:100040004700C420CE23A021C8205900C420CE23BD
:100050002022552747000330B702031C39283730C8
:100060008400831300080319392837283728800BA8
:1000700036280800201320088316870083120713F0
:10008000A012200883168700831287128316880126
:1000900083122D088800A01320088316870083127E
:1000A0008717A01320088316870083128713C83090
:1000B000B7002B2008002D3084008313000803199B
:1000C0006E280630F800F701F70B6428F80B632858
:1000D0007B30F700F70B6A28800B61280800383066
:1000E000AD003A200530AD005B200C30AD003A2069
:1000F0000130AD003A200230AD005B208A110A12B7
:100100002A2C201320088316870083120713A012BD
:1001100020088316870083128716831688018312AE
:1001200036088800A01320088316870083128717DB
:10013000A01320088316870083128713C830B700E6
:100140002B2008000B08AD008B13831603178C17A8
:100150000C140000000083120313AD1B8B17031750
:100160000C087F390319F6280313AD0003170D0897
:100170000313AE0003170F080313AF002D08B600DA
:1001800081202E0803178D0003132F0803178F00FB
:1001900003130B08B0008B13831603178C170C1472
:1001A0000000000083120313B01B8B1703170C0D04
:1001B0000E0D7F390319F6280313AD0003170D0840
:1001C0000313AE0003170F080313AF002D08B6008A
:1001D00081202E0803178D0003132F0803178F00AB
:1001E0008D0A03198F0A0313A228031703130800AB
:1001F0000B08AE008B13831603178C170C1400002A
:10020000000083120313AE1B8B1703182F2903174B
:100210000C087F390313AE0003170D080313AF005A
:1002200003170F080313B0002E08B60081202F0813
:1002300003178D000313300803178F0003130B08F7
:10024000B1008B13831603178C170C1400000000E9
:1002500083120313B11B8B17AD0B2F294E290317E4
:100260000C0D0E0D7F390313AE0003170D08031399
:10027000AF0003170F080313B0002E08B60081204B
:100280002F0803178D000313300803178F008D0A02
:1002900003198F0A03100313AD0BF8280800300868
:1002A000F8012F02031857292F08F7006329F701D7
:1002B0000830B100AF0DF70D300877020318F700D2
:1002C000F80DB10B5A29080078082D08AF006430EA
:1002D000B0004F217708AD0078083030031D772932
:1002E000AE1C7E29AE197E292E1A20307A29AE1135
:1002F0002E122E14F8077808B60081202D08AF00C2
:100300000A30B0004F217708AD0078083030031D67
:100310008F29AE1993292E1C93292E1A2030F80705
:100320007808B60081203030AD072D08B600812056
:1003300008000F08FA000E08F7000F087A02031DE4
:1003400099297708A2002208183C0318AC298E01CD
:100350008F0101308E0000008030AD003A20043063
:1003600003178D0000308F0003100D300313AD0014
:10037000F8202208AD000130AE0064210C300317D4
:100380008D0000308F00031404300313AD00F820FB
:100390008A110A12552C0B1DE729813081000B119F
:1003A000A30A23084E3C031DE729A301A40A24083D
:1003B0003B3C0318E729A401A50A25083B3C031888
:1003C000E729A501A60A2608173C031CA601C03090
:1003D000AD003A200F3003178D0000308F0003105E
:1003E0000B300313AD00F8202608AD000130AE003D
:1003F00064213A30B60081202508AD000130AE00FE
:1004000064213A30B60081202408AD000130AE00EE
:1004100064218A110A12562C8E30F7002F08F8003A
:100420002E08F900FA01F808031D202A7908F800BF
:10043000F9010830F702F808031D202AF701282ADD
:100440000310F81B272AF90DF80DF703202AF813DB
:1004500008002E080319EE2ABA0032080319EE2A02
:10046000BA02031C382A7F30BA070318EE2A3E2A44
:100470008130BA02031CEE2A0319EE2A3A08F7006B
:10048000F801F901FA01B9012F08B800B8173008CE
:10049000B7003108B6001930BA003508B6020318A3
:1004A000612A0130B7020318612AB8020318612AD1
:1004B000B9020318612AB90AB80AB70A3508B6079B
:1004C000932A3408B70203187C2A0130B8020318B3
:1004D0007C2AB90203187C2AB90AB80A3408B7077B
:1004E0003508B607031C932AB70A031D932AB80AD6
:1004F000031D932AB90A932A33088038B8020318D7
:10050000922A0130B9020318922AB90A33088038B6
:10051000B8073408B707031C702AB80A031D702AED
:10052000B90A702A7A14BA0B962AA12A0310B60DBA
:10053000B70DB80DB90D0310FA0DF90DF80DBB0D7F
:100540004D2A3B1CA92A0310F80CF90CFA0CBB0C21
:10055000AC2AF7030319EE2ABB1BD52A0310B60DEC
:10056000B70DB80DB90D3508B6020318C12A013010
:10057000B7020318C12AB8020318C12AB902031C22
:10058000E42A3408B7020318CC2A0130B802031851
:10059000CC2AB902031CE42A33088038B8020318B5
:1005A000D52A0130B902031CE42AFA0A031DE42A01
:1005B000F90A031DE42AF80A031DE42AF70A0319BD
:1005C000EE2AF80CF90CFA0C2F08BA003308BA0618
:1005D000BA1FEC2AF817F22AF813F22AF701F801E9
:1005E000F901FA0108008E30F7002D08F7022E08F5
:1005F000F9002F08F800F917F70803190A2B031060
:10060000F908031D062BF80803190A2BF90CF80C3E
:10061000F70BFF2AAE1F112BF809F909F80A031985
:10062000F90A0800B5010408B4003510831B35141D
:100630002E0EF038B000B007E23EB100323EB300FB
:100640002E080F39B107B107B307E93EB200B20770
:10065000B2072D0E0F39B207B307B20DB30DB309B0
:10066000B30D2D080F39B307B00D0730AF000A30B6
:10067000B307B203031C382BB207B103031C3C2B96
:10068000B107B003031C402BB007AF03031C442B7E
:100690002F3084008313073034053413840733303C
:1006A0000402031934170008F700031D5F2B341BE5
:1006B0005F2B341A712BB4195F2B2030622BB415C9
:1006C00034123030F707AE010408AD002E10831B42
:1006D0002E147708B60081202D08840083132E186D
:1006E0008317840A341F4F2B08001830F8001F08A6
:1006F000C33978049F000130AD005B209F149F1820
:100700007F2BAF011E08AE000C227A08B1007908D9
:10071000B0007808AF007708AE003330B500B40001
:100720002330B3008030B20029227A08B000790863
:10073000AF007808AE007708AD00F3227908A80072
:100740007808A7001C30F8001F08C33978049F0000
:100750000130AD005B209F149F18AC2BAF011E0829
:10076000AE000C227A08B1007908B0007808AF001A
:100770007708AE003330B500B4002330B3008030CA
:10078000B20029227A08B0007908AF007808AE00DC
:100790007708AD00F3227908AA007808A900943000
:1007A000AD003A200B3084002808AE002708AD00C9
:1007B00012232030B60081204330B60081209630CD
:1007C000AD003A20DF30B6008120A430AD003A20E1
:1007D0000B3084002A08AE002908AD001223203017
:1007E000B60081204330B6008120A630AD003A200B
:1007F000DF30B60081208A110A12572C03081F39F6
:100800008300FF30A0002110A401A501A601AC01C6
:10081000AB01831603170908C039890003131F129F
:100820009F12003003178800831287018801890115
:100830008313FF3083160313850001308700831272
:10084000A000003083168800091489140915891541
:1008500083126F2890018E018F018E010000831694
:100860000108C03907388100813083128100D430FB
:10087000AD003A201C3003178D0000308F000313A9
:10088000A2201F139F1783169F1383121F14831612
:1008900003170908C039890003131F169F16C030BB
:1008A00003178800831203139929CB29752B83160C
:1008B000091483120918802C1430AD005B208316B4
:1008C000091483120918802C0130A106211C752CF3
:1008D000D430AD003A20213003178D0000308F0056
:1008E0000313A22007309000802C9001D430AD007B
:1008F0003A20263003178D0000308F000313A2200A
:04090000542C630010
:04400E00E22FFF3F5F
:00000001FF
;PIC16F887
;CRC=4D87  CREATED="04-Nov-23 15:35"
