:1000000002308A00292A0000FF00030E8301A100AC
:100010000A08A0008A010408A2007708A300780853
:10002000A4007908A5007A08A600831383128C30F7
:100030008400801E1D288C1A2E2822088400230884
:10004000F7002408F8002508F9002608FA0020081F
:100050008A00210E8300FF0E7F0E09008A110A120A
:100060003F280A108A100A118207C034F934A434D8
:10007000B034993492348234F834803490348C1E05
:100080003F281A08A8008C1E43281A08AC01AB00B0
:100090008C128A110A121D282E3084008313000846
:1000A00003195F280630F800F701F70B5528F80B05
:1000B00054287B30F700F70B5B28800B5228080090
:1000C0000F08FA000E08F7000F087A02031D6028D7
:1000D0007708A7002708183C031873288E018F01A2
:1000E00001308E00000027080C1E7428990064302F
:1000F000AE004C208A110A12762A1030F8001F0830
:10010000C33978049F000130AE004C209F149F1823
:1001100087281E08F90083161E08F8007908831244
:10012000AF007808AE002F08B1002E08B0008E3066
:10013000F7003108F8003008F900FA01F808031D4B
:10014000AB287908F800F9010830F702F808031D18
:10015000AB28F701B3280310F81BB228F90DF80DEE
:10016000F703AB28F8137A08B3007908B2007808CF
:10017000B1007708B0003530B7005E30B6007A3095
:10018000B5007D30B400300803193329B8003408B5
:1001900003193329B8070318D4287F30B802031C89
:1001A000332903193329D8288130B8070318332994
:1001B0003808F700F801F901FA013108BC00BC1752
:1001C0003208BB003308BA001830B800B9013A1C35
:1001D00001293708FA07031CF328F90A031DF3283D
:1001E000F80A0319B9173608F907031CFA28F80AA0
:1001F0000319B9173508B200B2173208F807031807
:10020000B917B90DF80CF90CFA0CBC0CBB0CBA0CF4
:100210000310B80BE6280130F70703183329F81B41
:100220001829BC0DFA0DF90DF80DF7030319332940
:10023000BC1F2929FA0A031D2929F90A031D2929A6
:10024000F80A031D2929F80CF90CFA0CF70A03190E
:1002500033293108B9003508B906B91F3129F81713
:100260003729F8133729F701F801F901FA017A085B
:10027000B1007908B0007808AF007708AE008E3082
:10028000F7002E08F7022F08F9003008F800F917D8
:10029000F708031956290310F908031D5229F80815
:1002A00003195629F90CF80CF70B4B29AF1F5D29E0
:1002B000F809F909F80A0319F90A7908AA0078086F
:1002C000A90029080C1E622999006430AE004C2058
:1002D0008A110A12772A3008F8012F0203187329AD
:1002E0002F08F7007F29F7010830B100AF0DF70D97
:1002F000300877020318F700F80DB10B76290800D3
:10030000F801F901F701FA013308031D8A293208BF
:100310000319A4291030B4000310B00DB10DF70D6E
:10032000FA0D33087A02031D972932087702031C5D
:10033000A0293208F702031CFA033308FA02031457
:10034000F80DF90DB40B8C2908002808AF000A300D
:10035000B0006B217808AF000A30B0006B2177083D
:100360003120AE008316880183122E088800831680
:100370000610831206100130AE004C2083160610C2
:10038000831206142808AF000A30B0006B217708EA
:100390003120AE008316880183122E088800831650
:1003A0008610831286100130AE004C208316861012
:1003B000831286142C08B1002B08B000B3010A3058
:1003C000B20080217908AF007808AE007908B1004A
:1003D0007808B000B3010A30B20080217708AE007F
:1003E0007A08AF00FA0077083120B0008316880140
:1003F000831230088800831606118312061101301B
:10040000AE004C2083160611831206152C08B1008D
:100410002B08B000B3010A30B20080217708AE008B
:100420007A08AF00FA0077083120B00083168801FF
:1004300083123008880083168611831286110130DA
:10044000AE004C2083168611831286158A110A127B
:10045000782A03081F39830083160317871508308D
:100460000313990002309A00A6309800903083124E
:100470009800FF30AD00831603170908C0398900C2
:1004800003131F129F120030031788008312870185
:10049000880189018313FF30831603138500003020
:1004A0008600813087008312AD00003083168800FB
:1004B0000730831290008E018F018E0100001F1300
:1004C0009F1783169F1783121F148316031709089B
:1004D000C039890003131F129F12103003178800C0
:1004E00003138C16C03083128B0460287D28A52945
:0404F000752A630006
:04400E00E22FFF3F5F
:00000001FF
;PIC16F887
;CRC=D213  CREATED="22-Nov-23 00:23"
