:1000000002308A002D2A0000FF00030E8301A100A8
:100010000A08A0008A010408A2007708A300780853
:10002000A4007908A5007A08A600831383128C30F7
:100030008400801E1D288C1A2E2822088400230884
:10004000F7002408F8002508F9002608FA0020081F
:100050008A00210E8300FF0E7F0E09008A110A120A
:100060003F280A108A100A118207C034F934A434D8
:10007000B034993492348234F83480349034A908FE
:10008000031D46288C1E42281A08A800290B4D285B
:100090008C1E48281A08AD01AC00A90A2908013CA9
:1000A000031CA9018C128A110A121D283108F801BB
:1000B000300203185E283008F7006A28F70108307C
:1000C000B200B00DF70D310877020318F700F80DF4
:1000D000B20B612808002F30840083130008031935
:1000E0007E280630F800F701F70B7428F80B732808
:1000F0007B30F700F70B7A28800B71280800F80195
:10010000F901F701FA013408031D8928330803199E
:10011000A3281030B5000310B10DB20DF70DFA0D84
:1001200034087A02031D962833087702031C9F289F
:100130003308F702031CFA033408FA020314F80D1B
:10014000F90DB50B8B2808002808B0000A30B10063
:1001500056207808B0000A30B100562077083120C8
:10016000AF008316880183122F08880083160610BB
:10017000831206100130AF006B2083160610831225
:1001800006142808B0000A30B10056207708312044
:10019000AF008316880183122F088800831686100B
:1001A000831286100130AF006B20831686108312F5
:1001B00086142D08B2002C08B100B4010A30B30037
:1001C0007F207908B0007808AF007908B20078087D
:1001D000B100B4010A30B3007F207708AF007A087D
:1001E000B000FA0077083120B1008316880183122D
:1001F0003108880083160611831206110130AF0002
:100200006B2083160611831206152D08B2002C08E8
:10021000B100B4010A30B3007F207708AF007A083C
:10022000B000FA0077083120B100831688018312EC
:100230003108880083168611831286110130AF00C1
:100240006B2083168611831286158A110A127B2A67
:100250000F08FA000E08F7000F087A02031D28297C
:100260007708183CA700A708031D3B298E018F01C2
:1002700001308E00000027080C1E3C2999008A11CD
:100280000A127C2A1030F8001F08C33978049F0036
:100290000130AF006B209F149F184C291E08F900F5
:1002A00083161E08F80079088312B0007808AF00A2
:1002B0003008B2002F08B1008E30F7003208F80085
:1002C0003108F900FA01F808031D70297908F800CF
:1002D000F9010830F702F808031D7029F7017829A1
:1002E0000310F81B7729F90DF80DF7037029F8139F
:1002F0007A08B4007908B3007808B2007708B10032
:100300003530B8005E30B7007A30B6007D30B500C9
:1003100031080319F829B90035080319F829B90774
:10032000031899297F30B902031CF8290319F82909
:100330009D298130B9070318F8293908F700F80119
:10034000F901FA013208BD00BD173308BC003408BA
:10035000BB001830B900BA013B1CC6293808FA079F
:10036000031CB829F90A031DB829F80A0319BA179A
:100370003708F907031CBF29F80A0319BA1736080A
:10038000B300B3173308F8070318BA17BA0DF80CFF
:10039000F90CFA0CBD0CBC0CBB0C0310B90BAB294F
:1003A0000130F7070318F829F81BDD29BD0DFA0DF8
:1003B000F90DF80DF7030319F829BD1FEE29FA0A04
:1003C000031DEE29F90A031DEE29F80A031DEE2983
:1003D000F80CF90CFA0CF70A0319F8293208BA00DC
:1003E0003608BA06BA1FF629F817FC29F813FC29B3
:1003F000F701F801F901FA017A08B2007908B100B1
:100400007808B0007708AF008E30F7002F08F702A9
:100410003008F9003108F800F917F70803191B2A0A
:100420000310F908031D172AF80803191B2AF90CF1
:10043000F80CF70B102AB01F222AF809F909F80A5C
:100440000319F90A7908AB007808AA002A080C1EDB
:10045000272A99008A110A127D2A03081F3983006E
:1004600083160317871508300313990002309A008A
:10047000A6309800903083129800A901FF30AE009A
:10048000831603170908C039890003131F129F122E
:1004900000300317880083128701880189018313C4
:1004A000FF308316031385000030860081308700FB
:1004B0008312AE000030831688000730831290004C
:1004C0008E018F018E0100001F139F1783169F1747
:1004D00083121F14831603170908C03989000313F8
:1004E0001F129F1210300317880003138C16C030A0
:0E04F00083128B04A428282942297A2A63004B
:04400E00E22FFF3F5F
:00000001FF
;PIC16F887
;CRC=EB7D  CREATED="22-Nov-23 00:27"
