:1000000003308A001A2B0000FF00030E8301A100B9
:100010000A08A0008A010408A2007708A300780853
:10002000A4007908A5007A08A60003170D08031399
:10003000A70003170F080313A80003170C080313E6
:10004000A90003170E080313AA00831383128C3030
:100050008400801E2D288C1A4E2822088400230834
:10006000F7002408F8002508F9002608FA002708F8
:1000700003178D000313280803178F0003132908A3
:1000800003178C0003132A0803178E00031320089C
:100090008A00210E8300FF0E7F0E09008A110A12CA
:1000A0006328C4224D1053283A102518B23AA021D3
:1000B000C12400004E24C9225410C4273A10251828
:1000C0003236751043008C1E63281A08AC008C1E53
:1000D00067281A08B001AF008C128A110A122D2865
:1000E0000330BC02031C7E283C30840083130008CC
:1000F00003197E287C287C28800B7B280800831627
:100100000613831206138316861283128612831631
:10011000880183123208880083168613831286179B
:100120008316861383128613C830BC007020080023
:1001300032308400831300080319AB280630F8001E
:10014000F701F70BA128F80BA0287B30F700F70B7D
:10015000A728800B9E2808003830B2007F20053089
:10016000B20098200C30B2007F200130B2007F2016
:100170000230B20098208A110A124B2B0F08FA00A5
:100180000E08F7000F087A02031DBE287708AB009F
:100190002B08183C0318D1288E018F0101308E00E6
:1001A00000002B080C1ED22899008A110A12682B15
:1001B0001030F8001F08C33978049F000130B200E6
:1001C00098209F149F18E2281E08F90083161E0825
:1001D000F80079088312B3007808B2003308B5003C
:1001E0003208B4008E30F7003508F8003408F90002
:1001F000FA01F808031D06297908F800F90108300A
:10020000F702F808031D0629F7010E290310F81B51
:100210000D29F90DF80DF7030629F8137A08B70030
:100220007908B6007808B5007708B4003530BB000F
:100230005E30BA007A30B9007D30B8003408031956
:100240008E29BC00380803198E29BC0703182F29F2
:100250007F30BC02031C8E2903198E29332981307B
:10026000BC0703188E293C08F700F801F901FA01D0
:100270003508C000C0173608BF003708BE00183068
:10028000BC00BD013E1C5C293B08FA07031C4E293B
:10029000F90A031D4E29F80A0319BD173A08F90790
:1002A000031C5529F80A0319BD173908B600B617FB
:1002B0003608F8070318BD17BD0DF80CF90CFA0C39
:1002C000C00CBF0CBE0C0310BC0B41290130F7075A
:1002D00003188E29F81B7329C00DFA0DF90DF80DBE
:1002E000F70303198E29C01F8429FA0A031D8429E4
:1002F000F90A031D8429F80A031D8429F80CF90C56
:10030000FA0CF70A03198E293508BD003908BD0615
:10031000BD1F8C29F8179229F8139229F701F801CB
:10032000F901FA017A08B5007908B4007808B30039
:100330007708B2008E30F7003208F7023308F90070
:100340003408F800F917F7080319B1290310F90860
:10035000031DAD29F8080319B129F90CF80CF70BA6
:10036000A629B31FB829F809F909F80A0319F90AE7
:100370007908AE007808AD002D080C1EBD29990043
:100380008A110A12692B8316061383120613831629
:100390008612831286168316880183123B08880012
:1003A0008316861383128617831686138312861389
:1003B000C830BC00702008000B08B3008B138316F4
:1003C00003178C170C140000000083120313B31BD7
:1003D0008B170318132A03170C087F390313B30074
:1003E00003170D080313B40003170F080313B50018
:1003F0003308BB00C321340803178D0003133508ED
:1004000003178F0003130B08B6008B138316031713
:100410008C170C140000000083120313B61B8B17FB
:10042000B20B132A322A03170C0D0E0D7F3903135A
:10043000B30003170D080313B40003170F080313C9
:10044000B5003308BB00C321340803178D00031324
:10045000350803178F008D0A03198F0A0310031341
:10046000B20BDC2908003508F801340203183B2AD6
:100470003408F700472AF7010830B600B40DF70D2D
:10048000350877020318F700F80DB60B3E2A08006E
:100490008030B2007F20513003178D0000308F0074
:1004A000031008300313B200DC212C08B200013025
:1004B000B3003208B4006430B50033227708B200CC
:1004C00078083030031D6B2AB31C722AB319722AC4
:1004D000331A20306E2AB31133123314F807780818
:1004E000BB00C3213208B4000A30B50033227708BC
:1004F000B20078083030031D832AB319872A331CD1
:10050000872A331A2030F8077808BB00C32130301F
:10051000B2073208BB00C321573003178D000030EB
:100520008F00031004300313B200DC21C030B2008E
:100530007F205A3003178D0000308F0003100A30DF
:100540000313B200DC210B3084003008B3002F0805
:10055000B200BA010408B9003A10831B3A14330EF2
:10056000F038B500B507E23EB600323EB8003308B9
:100570000F39B607B607B807E93EB700B707B707A0
:10058000320E0F39B707B807B70DB80DB809B80D57
:1005900032080F39B807B50D0730B4000A30B80774
:1005A000B703031CCF2AB707B603031CD32AB60729
:1005B000B503031CD72AB507B403031CDB2A343068
:1005C0008400831307303905391384073830040257
:1005D000031939170008F700031DF62A391BF62AFC
:1005E000391A082BB919F62A2030F92AB915391207
:1005F0003030F707B3010408B2003310831B331403
:100600007708BB00C3213208840083133318831793
:10061000840A391FE62A2030BB00C3214330BB00C7
:10062000C321CC30B2007F20DF30BB00C3218A1150
:100630000A126A2B03081F398300831603178715D4
:1006400008300313990002309A00A63098009030C9
:1006500083129800FF30B100831603170908C039D0
:10066000890003131F129F120030031788008312A2
:100670008701880189018313FF30831603138500E6
:1006800000308600813087008312B100003083166D
:1006900088008312AC28073090008E018F018E01F4
:1006A00000001F139F1783169F1783121F148316B2
:1006B00003170908C039890003131F129F12103055
:1006C0000317880003138C16C03083128B04BE28D6
:0806D000D828482A672B6300BB
:04400E00E22FFF3F5F
:00000001FF
;PIC16F887
;CRC=401A  CREATED="22-Nov-23 00:02"
