:1000000002308A00852A0000D3272026D527CE2358
:10001000A029501DA01275100000D4204E10D32727
:100020003A10A53A20247A005424CF24A023C920D2
:100030004E1DA0123019751D2518B23ABA1230198A
:100040007500C827202A45273A10D62A202AC92217
:100050004E105024412A0000D3272026D527CE2336
:10006000A029501DA01275000330AF02031C4228C6
:100070002F308400831300080319422840284028A9
:10008000800B3F2808002013200883168700831266
:100090000713A01220088316870083128712831685
:1000A000880183122A088800A0132008831687007D
:1000B00083128717A01320088316870083128713E3
:1000C000C830AF00342008002A30840083130008B1
:1000D000031977280630F800F701F70B6D28F80BA5
:1000E0006C287B30F700F70B7328800B6A28080018
:1000F0003830AA0043200530AA0064200C30AA0042
:1001000043200130AA0043200230AA0064208A1153
:100110000A12C52A201320088316870083120713AA
:10012000A012200883168700831287168316880181
:1001300083122E088800A0132008831687008312DC
:100140008717A01320088316870083128713C830EF
:10015000AF00342008000B08AA008B138316031786
:100160008C170C140000000083120313AA1B8B17BA
:1001700003170C087F390319FF280313AA0003177C
:100180000D080313AB0003170F080313AC002A0874
:10019000AE008A202B0803178D0003132C080317C9
:1001A0008F0003130B08AD008B13831603178C17F6
:1001B0000C140000000083120313AD1B8B170317F0
:1001C0000C0D0E0D7F390319FF280313AA00031726
:1001D0000D080313AB0003170F080313AC002A0824
:1001E000AE008A202B0803178D0003132C08031779
:1001F0008F008D0A03198F0A0313AB28031703130B
:100200008A110A12CF2A0B08AB008B13831603172F
:100210008C170C140000000083120313AB1B8B1708
:1002200003183A2903170C087F390313AB0003178F
:100230000D080313AC0003170F080313AD002B08C0
:10024000AE008A202C0803178D0003132D08031716
:100250008F0003130B08AE008B13831603178C1744
:100260000C140000000083120313AE1B8B17AA0BA3
:100270003A29592903170C0D0E0D7F390313AB00D2
:1002800003170D080313AC0003170F080313AD0089
:100290002B08AE008A202C0803178D0003132D08AD
:1002A00003178F008D0A03198F0A03100313AA0B7B
:1002B000032908002D08F8012C02031862292C08D4
:1002C000F7006E29F7010830AE00AC0DF70D2D08D0
:1002D00077020318F700F80DAE0B652908007808BF
:1002E0002A08AC006430AD005A217708AA007808CB
:1002F0003030031D8229AB1C8929AB1989292B1A9F
:1003000020308529AB112B122B14F8077808AE008A
:100310008A202A08AC000A30AD005A217708AA00CA
:1003200078083030031D9A29AB199E292B1C9E2971
:100330002B1A2030F8077808AE008A203030AA0740
:100340002A08AE008A2008008316091483120918AF
:10035000BD291430AA0064208316091483120918D9
:10036000BD29A70A2708053C0318B8290130A700B2
:10037000831609148312091CB829D430AA0043201B
:100380000D3003178D0000308F0003100830031369
:10039000AA0003212708AA001B30AB006F212030E0
:1003A000AE008A204830AE008A207A30AE008A2023
:1003B0008A110A12E22A0108A1002108183C031838
:1003C000E32901308100C030AA0043200430031724
:1003D0008D0000308F0003100D300313AA0003219D
:1003E0002108AA001B30AB006F212030AE008A200C
:1003F0008A110A12E32A0C1C602A8E013C308F00FD
:10040000B0308E0000000C10A20AA60A270B122A98
:100410002608313C0318122A831606100130831275
:100420008606A6012708023C031D202A2608183C40
:100430000318202A83160610013083128606A601AF
:100440002708033C031D2E2A2608103C03182E2AD9
:1004500083160610013083128606A6012708043C85
:10046000031D3C2A26080C3C03183C2A8316061060
:10047000013083128606A6012708053C031D4A2A7F
:100480002608093C03184A2A8316061001308312F5
:100490008606A6012208643C031D602AA201A50A63
:1004A00025083B3C0318602AA501A40A24083B3C0C
:1004B0000318602AA401A30A2308173C031CA30104
:1004C0009430AA004320143003178D0000308F00B1
:1004D00003100B300313AA0003212308AA000130E4
:1004E000AB006F213A30AE008A202408AA00013008
:1004F000AB006F213A30AE008A202508AA000130F7
:10050000AB006F218A110A12E42A03081F39830005
:10051000FF30A000A101A2011730A3003B30A400CE
:100520003730A500A601A701A901A801831603176A
:100530000908C039890003131F129F1200300317E6
:100540008800831287018801890183130030831694
:10055000031387008312A0008316880010308500E3
:100560000914891409158915003086000108C73956
:100570003838810083128101053090008E013C30B3
:100580008F00B0308E00000078288030AA00432011
:10059000213003178D0000308F000313AB28C030CB
:1005A000AA0043202C3003178D0000308F00031069
:1005B0000D300313AA0003212108AA001B30AB0051
:0C05C0006F21A429DB29FB29E12A63003C
:04400E00E22FFF3F5F
:00000001FF
;PIC16F887
;CRC=1E8C  CREATED="19-Oct-23 00:00"
