:1000000005308A00602D00000A108A100A1182074C
:10001000EF34DF34BF347F340A108A100A118207AC
:10002000C034F934A434B034993492348234F8347E
:1000300080349034C724CF24202441273A10251837
:10004000B23A0000D3204E105024C1263A10251891
:10005000B23AA021C1240000CE20CE23A029D52071
:10006000541DA0123019EC3AA021C1248001C724EC
:10007000CF24202441273A102518B23A00003C3002
:10008000840083130008031952280230F800F70196
:10009000F70B4828F80B47289730F700F70B4E2846
:1000A000800B4528080043185728071258280716C0
:1000B00020122008831687008312C3186128871234
:1000C00062288716A012200883168700831243191E
:1000D0006B2807136C280717201320088316870046
:1000E0008312C3197528871376288717A013200851
:1000F00083168700000083120915831609118028D2
:100100008128831209118316091183120800C40182
:10011000201620088316870000308312071A01304A
:10012000C404A01620088316870000308312871AA3
:100130000130F7000310F70D7708C40420172008DA
:100140008316870000308312071B0130F700F70D7C
:10015000F70DFC30F7057708C404A01720088316B4
:10016000870000308312871B0130F700F70DF70D71
:10017000F70DF830F7057708C4044408F8000800C4
:1001800083160911091089108312091083160910AA
:100190000716871607178717831289148316891085
:1001A00000008312091583160911000083128720AD
:1001B0007808C3000911831609110000831209157C
:1001C00083160911E328831287207808C2000911D9
:1001D00083160911831220122008831687008312C8
:1001E000A01220088316870083122013200883168C
:1001F00087008312A0132008831687008312430E02
:10020000F700F030F70577084204F8007808C200DC
:10021000C21F0C298316C828C008031D1129091004
:1002200012290914831609100000831289108316FD
:100230008910000083120911831609118312410EDF
:10024000C2000F30C2054208C300532041080F39D5
:10025000C200C300532008002830B0000C30B100A9
:100260000130B2000630B300091183160911831260
:1002700009108316091083128910831689108312BE
:1002800020122008831687008312A01220088316EC
:100290008700831220132008831687008312A0137F
:1002A0002008831687000911091089100F30831266
:1002B000BC003F200130AF002F08033C031C68291D
:1002C0000330C30053200530BC003F20AF0A5C2937
:1002D0000230C30053200530BC003F20AF012F087F
:1002E000033C031C7F2930302F0784008313000850
:1002F000B400C0013408C100C020AF0A6F298A11C0
:100300000A12AA2D3D0B852988294030BE00892973
:10031000BE0101303C02BE073E088038BF00C0016C
:100320003F08C100C02008003B08073A0319A22972
:100330000B3A0319A729063A0319AF29023A031900
:10034000B529BA290130BC00BD008221BF29C001F6
:100350000130C100C0200230BC003F20BF29013065
:10036000BC000230BD008221BF29C0011030C10095
:10037000C020BF290130C0003B08C100C0200800D8
:100380000B08B1008B13831603178C170C14000095
:10039000000083120313B11B8B170318F7290317EF
:1003A0000C087F390313B10003170D080313B200C3
:1003B00003170F080313B3003108BB009421320860
:1003C00003178D000313330803178F0003130B0863
:1003D000B4008B13831603178C170C140000000055
:1003E00083120313B41B8B17B00BF729162A0317BC
:1003F0000C0D0E0D7F390313B10003170D08031305
:10040000B20003170F080313B3003108BB00942197
:10041000320803178D000313330803178F008D0A6A
:1004200003198F0A03100313B00BC0290800330807
:10043000F801320203181F2A3208F7002B2AF701AD
:100440000830B400B20DF70D330877020318F70037
:10045000F80DB40B222A080078083008B200643086
:10046000B30017227708B00078083030031D3F2A08
:10047000B11C462AB119462A311A2030422AB1113C
:1004800031123114F8077808BB0094213008B2000B
:100490000A30B30017227708B00078083030031D07
:1004A000572AB1195B2A311C5B2A311A2030F80710
:1004B0007808BB0094213030B0073008BB0094218D
:1004C00008000B1D7D2A64308100AA0A0B112A083E
:1004D000323C031D7D2AAA01A50A25083B3C0318CE
:1004E0007D2AA40AA50124083B3C03187D2AA40107
:1004F000A30A2308173C031CA3012308B2000A30F7
:10050000B30017227808B2000A30B3001722770828
:100510000C20AF008316850183122F0885008316F7
:100520000810831208100130BC003F208316081009
:10053000831208142308B2000A30B3001722770888
:100540000C20AF008316850183122F0885008316C7
:100550008810831288100130BC003F208316881059
:10056000831288142408B2000A30B30017227808D6
:10057000B2000A30B300172277080C20AF008316B0
:10058000850183122F088500831688118312881134
:100590000130BC003F20831688118312881524087F
:1005A000B2000A30B300172277080C20AF00831680
:1005B000850183122F088500831608128312081202
:1005C0000130BC003F20831608128312081625084C
:1005D000B2000A30B30017227808B2000A30B30024
:1005E000172277080C20AF008316850183122F088D
:1005F000850083160813831208130130BC003F20C6
:1006000083160813831208172508B2000A30B300B6
:10061000172277080C20AF008316850183122F085C
:10062000850083168813831288130130BC003F2095
:10063000831688138312881783168501BF308312AF
:10064000850083160811831208110130BC003F2079
:10065000831608118312081583168501BF30831293
:10066000850083168812831288120130BC003F2057
:1006700083168812831288168A110A12BF2DFF3042
:10068000AF00B0013008033C031C852B3008042068
:10069000B100831686018312310886008316061482
:1006A00083120618592B300DAF00AF0DFC30AF058B
:1006B0004E2B8316861483128618672B300DF70095
:1006C000F70DFC30F7057708013EAF00592B831674
:1006D000061583120619752B300DF700F70DFC3047
:1006E000F7057708023EAF00672B83168615831245
:1006F0008619832B300DF700F70DFC30F7057708CE
:10070000033EAF00752BB00A422B2F08F800780883
:10071000A600A608031D8E2BA701A80A260B932B63
:100720000130A700A80A2608023C031D9A2B0230BC
:10073000A700A80A2608033C031DA12B0330A7002D
:10074000A80A2608043C031DA82B0430A700A80A09
:100750002608053C031DAF2B0530A700A80A260874
:10076000063C031DB62B0630A700A80A2608073C46
:10077000031DBD2B0730A700A80A2608083C031D4F
:10078000C42B0830A700A80A2608093C031DCB2B60
:100790000930A700A80A8A110A12C02DF701F80132
:1007A0002F0803103018F707F70CF80CB018F707EC
:1007B000F70CF80C3019F707F70CF80CB019F7071D
:1007C000F70CF80C301AF707F70CF80CB01AF7070B
:1007D000F70CF80C301BF707F70CF80CB01BF707F9
:1007E000F70CF80C0800280BFC2B2708AF000A3088
:1007F000B000CE237808A9002808023C031D172C5E
:100800002708A907A8010130BC000230BD008221E1
:100810001A3003178D0000308F0003100A300313C5
:10082000B000C0212908B0000130B1002C228A118B
:100830000A12C12D0F08FA000E08F7000F087A02FD
:10084000031D1A2C7708A10021082F0203182D2C54
:100850008E018F0101308E0000000130BC00BD0010
:100860008221223003178D0000308F0003100A30E0
:100870000313B000C0212108B0000130B1002C22C8
:10088000293003178D0000308F000310043003134C
:10089000B000C021A0152008831687008312871995
:1008A0006F2C1430BC003F20A01520088316870051
:1008B000831287196F2CA2080319602C0030612C59
:1008C0000130A200220B672C07309000682C9001A9
:1008D000A0152008831687008312871D682C8A11B3
:1008E0000A12C42D8318772C433084008313F70138
:1008F000F801F901FA01C301C401C501C6014208AA
:10090000410440043F040319B52C2030C7000310F4
:10091000BB0DBC0DBD0DBE0DC30DC40DC50DC60D6B
:1009200042084602031D9E2C41084502031D9E2CD1
:1009300040084402031D9E2C3F084302031CAF2CB9
:100940003F08C3024008031C400FC4024108031CB7
:10095000410FC5024208031C420FC6020314F70DE3
:10096000F80DF90DFA0DC70B872C43088000840A97
:1009700044088000840A45088000840A46088000F4
:100980000800A308031DD22CA4080319D12C2108A8
:10099000B2002408B3001722AE01AD01AC01780803
:1009A000AB00E42C2308AF003C30B000CE23240879
:1009B0007807AF002108B2002F08B3001722AE015C
:1009C000AD01AC017808AB001530BC000130BD00B2
:1009D00082212C3003178D0000308F0003100B3064
:1009E0000313B000C021423084002E08B2002D084D
:1009F000B1002C08B0002B08AF000408B3003B3056
:100A0000BA009A30B900CA30B800B7010A30B50050
:100A100083142F30840083133208BE003108BD00D8
:100A20003008BC002F08BB003A08C2003908C100DA
:100A30003808C0003708BF0072247808F708031D83
:100A4000342D3508013A0319342D33080319352D97
:100A50000F39350203192E2D03183A2DB31B3A2DE9
:100A6000331B352D2030362DB3013030F707770892
:100A7000BB00942183103A08BE003908BD00380835
:100A8000BC003708BB00C201C101C0010A30BF0071
:100A900072247A08BA007908B9007808B800770893
:100AA000B700B50B082D343003178D0000308F00D0
:100AB000031004300313B000C0218A110A12C52D9F
:100AC00003081F398300713083168F0090010F08CF
:100AD000FF308312A000A1010130A200A301A401F4
:100AE000A501A8011430A900AA01AE01AD01AC0115
:100AF000AB01831603170908C039890003131F12BD
:100B00009F12003003178800831287018801890132
:100B100083130030831603138500FF3086000930ED
:100B200087008312A0000030831688000910891006
:100B3000091189110730831290008E018F018E01F7
:100B4000000083160108C039073881006430831221
:100B500081002C290130BC000230BD0082213730D9
:100B600003178D0000308F0003100A300313B0000C
:100B7000C0212908B0000130B1002C22612A3F2B8E
:0E0B8000F32B2908AF001A2CC12CBE2D6300E8
:04400E00E42FFF3F5D
:00000001FF
;PIC16F887
;CRC=464C  CREATED="24-Oct-23 14:36"
