:1000000003308A00552B00000A108A100A1182075B
:10001000C034F934A434B034993492348234F8348E
:1000200080349034D3204E105024C1263A10251825
:10003000B23AA021C12400002B30840083130008B1
:1000400003192F280230F800F701F70B2528F80BC9
:1000500024289730F700F70B2B28800B2228080064
:100060003218342807123528071620122008831664
:1000700087008312B2183E2887123F288716A012E5
:10008000200883168700831232194828071349284D
:10009000071720132008831687008312B2195228ED
:1000A000871353288717A0132008831687000000A2
:1000B00083120915831609115D285E288312091120
:1000C0008316091183120800B30120162008831635
:1000D000870000308312071A0130B304A0162008ED
:1000E0008316870000308312871A0130F70003104F
:1000F000F70D7708B3042017200883168700003017
:100100008312071B0130F700F70DF70DFC30F705E0
:100110007708B304A01720088316870000308312E5
:10012000871B0130F700F70DF70DF70DF830F705D5
:100130007708B3043308F800080083160911091082
:1001400089108312091083160910071687160717DE
:1001500087178312891483168910000083120915EA
:10016000831609110000831264207808B200091177
:100170008316091100008312091583160911C0287E
:10018000831264207808B1000911831609118312C3
:1001900020122008831687008312A01220088316DD
:1001A0008700831220132008831687008312A01370
:1001B0002008831687008312320EF700F030F7050F
:1001C00077083104F8007808B100B11FE9288316D8
:1001D000A528AF08031DEE280910EF28091483167F
:1001E0000910000083128910831689100000831201
:1001F0000911831609118312300EB1000F30B105B9
:100200003108B200302030080F39B100B200302080
:1002100008002830A7000C30A8000130A9000630E3
:10022000AA000911831609118312091083160910F7
:1002300083128910831689108312201220088316D6
:1002400087008312A01220088316870083122013D0
:100250002008831687008312A013200883168700C6
:100260000911091089100F308312AB001C200130D6
:10027000A6002608033C031C45290330B2003020A9
:100280000530AB001C20A60A39290230B20030200C
:100290000530AB001C20A6012608033C031C5C298A
:1002A00027302607840083130008AB00AF012B081A
:1002B000B0009D20A60A4C298A110A12922B2C0B01
:1002C000622965294030AD006629AD0101302B025D
:1002D000AD072D088038AE00AF012E08B0009D207C
:1002E00008002A08073A03197F290B3A03198429C1
:1002F000063A03198C29023A0319922997290130E9
:10030000AB00AC005F219C29AF010130B0009D2003
:100310000230AB001C209C290130AB000230AC0045
:100320005F219C29AF011030B0009D209C29013035
:10033000AF002A08B0009D2008000B08A7008B130F
:10034000831603178C170C1400000000831203138C
:10035000A71B8B170318D42903170C087F39031325
:10036000A70003170D080313A80003170F080313B2
:10037000A9002708AA007121280803178D0003137C
:10038000290803178F0003130B08AA008B13831689
:1003900003178C170C140000000083120313AA1B10
:1003A0008B17A60BD429F32903170C0D0E0D7F39DB
:1003B0000313A70003170D080313A80003170F0862
:1003C0000313A9002708AA007121280803178D002C
:1003D0000313290803178F008D0A03198F0A0310CE
:1003E0000313A60B9D2908002908F8012802031809
:1003F000FC292808F700082AF7010830AA00A80DF0
:10040000F70D290877020318F700F80DAA0BFF294A
:1004100008000F08FA000E08F7000F087A02031D03
:10042000092A7708A1002108143C03181C2A8E0110
:100430008F0101308E0000000130AB00AC005F2165
:10044000123003178D0000308F0003100A300313A1
:10045000A6009D212108A6000130A7002608A800BB
:100460006430A900F4217708A60078083030031D15
:10047000402AA71C472AA719472A271A2030432AAF
:10048000A71127122714F8077808AA007121260857
:10049000A8000A30A900F4217708A60078083030B7
:1004A000031D582AA7195C2A271C5C2A271A20300A
:1004B000F8077808AA0071213030A6072608AA009C
:1004C0007121193003178D0000308F0003100430A4
:1004D0000313A6009D21A015200883168700831210
:1004E0008719902A1430AB001C20A0152008831611
:1004F000870083128719902AA2080319812A0030E5
:10050000822A0130A200220B882A07309000892A13
:100510009001A0152008831687008312871D892A61
:100520008A110A12932B2308A8000A30A900F4218B
:100530007808A8000A30A900F42177080420A60052
:1005400083168501831226088500831608108312FE
:1005500008100130AB001C20831608108312081409
:100560002308A8000A30A900F42177080420A60077
:10057000831685018312260885008316881083124E
:1005800088100130AB001C20831688108312881459
:100590002408A8000A30A900F4217808A8000A302D
:1005A000A900F42177080420A60083168501831290
:1005B0002608850083168811831288110130AB004C
:1005C0001C2083168811831288152408A8000A307D
:1005D000A900F42177080420A60083168501831260
:1005E0002608850083160812831208120130AB001A
:1005F0001C2083160812831208162508A8000A304A
:10060000A900F4217808A8000A30A900F42177088D
:100610000420A60083168501831226088500831610
:100620000813831208130130AB001C208316081333
:10063000831208172508A8000A30A900F4217708BA
:100640000420A600831685018312260885008316E0
:100650008813831288130130AB001C208316881383
:100660008312881783168501BF3083128500831695
:100670000811831208110130AB001C2083160811E9
:100680008312081583168501BF30831285008316F7
:100690008812831288120130AB001C208316881246
:1006A000831288168A110A12942B03081F398300BB
:1006B000713083168F0090010F08FF308312A00065
:1006C000A1010130A2001730A3003B30A4003B3051
:1006D000A500831603170908C039890003131F12E8
:1006E0009F12003003178800831287018801890157
:1006F00083130030831603138500FF308600093012
:1007000087008312A000003083168800091089102A
:10071000091189110730831290008E018F018E011B
:0C07200000000929092A932A922B63008B
:04400E00E42FFF3F5D
:00000001FF
;PIC16F887
;CRC=38BE  CREATED="19-Oct-23 10:38"
