:1000000005308A006A2D00000A108A100A11820742
:10001000EF34DF34BF347F340A108A100A118207AC
:10002000C034F934A434B034993492348234F8347E
:1000300080349034C724CF24202441273A10251837
:10004000B23A0000D3204E105024C1263A10251891
:10005000B23AA021C1240000CE20CE23A029D52071
:10006000541DA012B019EC3AA021C1248001C7246C
:10007000CF24202441273A102518B23A00004030FE
:10008000840083130008031952280230F800F70196
:10009000F70B4828F80B47289730F700F70B4E2846
:1000A000800B4528080047185728071258280716BC
:1000B00020122008831687008312C7186128871230
:1000C00062288716A012200883168700831247191A
:1000D0006B2807136C280717201320088316870046
:1000E0008312C7197528871376288717A01320084D
:1000F00083168700000083120915831609118028D2
:100100008128831209118316091183120800C8017E
:10011000201620088316870000308312071A01304A
:10012000C804A01620088316870000308312871A9F
:100130000130F7000310F70D7708C80420172008D6
:100140008316870000308312071B0130F700F70D7C
:10015000F70DFC30F7057708C804A01720088316B0
:10016000870000308312871B0130F700F70DF70D71
:10017000F70DF830F7057708C8044808F8000800BC
:1001800083160911091089108312091083160910AA
:100190000716871607178717831289148316891085
:1001A00000008312091583160911000083128720AD
:1001B0007808C70009118316091100008312091578
:1001C00083160911E328831287207808C6000911D5
:1001D00083160911831220122008831687008312C8
:1001E000A01220088316870083122013200883168C
:1001F00087008312A0132008831687008312470EFE
:10020000F700F030F70577084604F8007808C600D4
:10021000C61F0C298316C828C408031D11290910FC
:1002200012290914831609100000831289108316FD
:100230008910000083120911831609118312450EDB
:10024000C6000F30C6054608C700532045080F39C1
:10025000C600C700532008002830B4000C30B50099
:100260000130B6000630B700091183160911831258
:1002700009108316091083128910831689108312BE
:1002800020122008831687008312A01220088316EC
:100290008700831220132008831687008312A0137F
:1002A0002008831687000911091089100F30831266
:1002B000C0003F200130B3003308033C031C682911
:1002C0000330C70053200530C0003F20B30A5C292B
:1002D0000230C70053200530C0003F20B30133086F
:1002E000033C031C7F293430330784008313000848
:1002F000B800C4013808C500C020B30A6F298A11AC
:100300000A12B92D410B852988294030C20089295C
:10031000C20101304002C20742088038C300C40154
:100320004308C500C02008003F08073A0319A22966
:100330000B3A0319A729063A0319AF29023A031900
:10034000B529BA290130C000C1008221BF29C401EA
:100350000130C500C0200230C0003F20BF2901305D
:10036000C0000230C1008221BF29C4011030C50085
:10037000C020BF290130C4003F08C500C0200800CC
:100380000B08B5008B13831603178C170C14000091
:10039000000083120313B51B8B170318F7290317EB
:1003A0000C087F390313B50003170D080313B600BB
:1003B00003170F080313B7003508BF009421360850
:1003C00003178D000313370803178F0003130B085F
:1003D000B8008B13831603178C170C140000000051
:1003E00083120313B81B8B17B40BF729162A0317B4
:1003F0000C0D0E0D7F390313B50003170D08031301
:10040000B60003170F080313B7003508BF00942187
:10041000360803178D000313370803178F008D0A62
:1004200003198F0A03100313B40BC02908003708FF
:10043000F801360203181F2A3608F7002B2AF701A5
:100440000830B800B60DF70D370877020318F7002B
:10045000F80DB80B222A080078083408B60064307A
:10046000B70017227708B40078083030031D3F2A00
:10047000B51C462AB519462A351A2030422AB5112C
:1004800035123514F8077808BF0094213408B600F7
:100490000A30B70017227708B40078083030031DFF
:1004A000572AB5195B2A351C5B2A351A2030F80704
:1004B0007808BF0094213030B4073408BF0094217D
:1004C00008008318662A473084008313F701F80177
:1004D000F901FA01C701C801C901CA01460845046A
:1004E000440443040319A42A2030CB000310BF0D99
:1004F000C00DC10DC20DC70DC80DC90DCA0D4608EE
:100500004A02031D8D2A45084902031D8D2A44080D
:100510004802031D8D2A43084702031C9E2A4308F4
:10052000C7024408031C440FC8024508031C450FBA
:10053000C9024608031C460FCA020314F70DF80D42
:10054000F90DFA0DCB0B762A47088000840A48087B
:100550008000840A49088000840A4A088000080054
:1005600025083B3C031DD12A21082F07B300300882
:10057000B400003003180130B4073108B500003072
:1005800003180130B5073208B600003003180130F7
:10059000B6073608AE003508AD003408AC003308A5
:1005A000AB001530C0000130C10082212C30031790
:1005B0008D0000308F0003100B300313B400C021F6
:1005C000433084002E08B6002D08B5002C08B40076
:1005D0002B08B3000408B7003B30BE009A30BD00C2
:1005E000CA30BC00BB010A30B90083143330840028
:1005F00083133608C2003508C1003408C000330830
:10060000BF003E08C6003D08C5003C08C4003B08CA
:10061000C30061227808F708031D212B3908013A2D
:100620000319212B37080319222B0F39390203191B
:100630001B2B0318272BB71B272B371B222B2030F4
:10064000232BB7013030F7077708BF0094218310C0
:100650003E08C2003D08C1003C08C0003B08BF0086
:10066000C601C501C4010A30C30061227A08BE0078
:100670007908BD007808BC007708BB00B90BF52AE3
:10068000343003178D0000308F0003100430031343
:10069000B400C0218A110A12CE2D0B1D692B6430C3
:1006A0008100AA0A0B112A08323C031D692BAA01FA
:1006B000A50A25083B3C0318692BA40AA5012408B8
:1006C0003B3C0318692BA401A30A2308173C031C15
:1006D000A3012308B6000A30B70017227808B60035
:1006E0000A30B700172277080C20B3008316850163
:1006F0008312330885008316081083120810013016
:10070000C0003F2083160810831208142308B60087
:100710000A30B700172277080C20B3008316850132
:1007200083123308850083168810831288100130E5
:10073000C0003F2083168810831288142408B60056
:100740000A30B70017227808B6000A30B70017221F
:1007500077080C20B30083168501831233088500C7
:1007600083168811831288110130C0003F20831640
:100770008811831288152408B6000A30B7001722A2
:1007800077080C20B3008316850183123308850097
:1007900083160812831208120130C0003F2083160E
:1007A0000812831208162508B6000A30B70017226F
:1007B0007808B6000A30B700172277080C20B3007B
:1007C000831685018312330885008316081383126C
:1007D00008130130C0003F20831608138312081746
:1007E0002508B6000A30B700172277080C20B3009E
:1007F00083168501831233088500831688138312BC
:1008000088130130C0003F20831688138312881795
:1008100083168501BF308312850083160811831269
:1008200008110130C0003F208316081183120815FB
:1008300083168501BF3083128500831688128312C8
:1008400088120130C0003F20831688128312881658
:100850008A110A12CF2DFF30B300B4013408033CD3
:10086000031C712C34080420B50083168601831202
:10087000350886008316061483120618452C340D9D
:10088000B300B30DFC30B3053A2C831686148312E3
:100890008618532C340DF700F70DFC30F705770858
:1008A000013EB300452C8316061583120619612CF0
:1008B000340DF700F70DFC30F7057708023EB30062
:1008C000532C83168615831286196F2C340DF7006E
:1008D000F70DFC30F7057708033EB300612CB40A2E
:1008E0002E2C3308F8007808A600A608031D7A2CE1
:1008F000A701A80A260B7F2C0130A700A80A26080A
:10090000023C031D862C0230A700A80A2608033CDF
:10091000031D8D2C0330A700A80A2608043C031DE4
:10092000942C0430A700A80A2608053C031D9B2C24
:100930000530A700A80A2608063C031DA22C063095
:10094000A700A80A2608073C031DA92C0730A7000A
:10095000A80A2608083C031DB02C0830A700A80AE6
:100960002608093C031DB72C0930A700A80A8A11E4
:100970000A12D02D280BE62C2708B3000A30B40049
:10098000F701F801330803103418F707F70CF80CD7
:10099000B418F707F70CF80C3419F707F70CF80C34
:1009A000B419F707F70CF80C341AF707F70CF80C22
:1009B000B41AF707F70CF80C341BF707F70CF80C10
:1009C000B41BF707F70CF80C7808A9002808023CBC
:1009D000031D012D2708A907A8010130C00002301E
:1009E000C10082211A3003178D0000308F000310E0
:1009F0000A300313B400C0212908B4000130B50047
:100A00002C228A110A12D12D0F08FA000E08F700C5
:100A10000F087A02031D042D7708A1002108330274
:100A20000318252D8E018F0101308E000000330840
:100A3000AF07003003180130B00700300318013051
:100A4000B107003003180130B2070130C000C10007
:100A50008221223003178D0000308F0003100A30EE
:100A60000313B400C0212108B4000130B5002C22CA
:100A7000293003178D0000308F000310043003135A
:100A8000B400C021A015200883168700831287199F
:100A9000672D1430C0003F20A01520088316870062
:100AA00083128719672DA2080319582D0030592D7C
:100AB0000130A200220B5F2D07309000602D9001C5
:100AC000A0152008831687008312871D602D8A11C8
:100AD0000A12D42D03081F398300713083168F004A
:100AE00090010F08FF308312A000A1010130A20085
:100AF000A301A4013230A500A8011430A900AA0165
:100B0000AE01AD01AC01AB01B201B101B001AF0169
:100B1000831603170908C039890003131F129F1297
:100B2000003003178800831287018801890183132D
:100B30000030831603138500FF30860009308700DC
:100B40008312A00000308316880009108910091153
:100B500089110730831290008E018F018E010000F1
:100B600083160108C0390738810064308312810080
:100B70002C290130C0000230C10082213730031718
:100B80008D0000308F0003100A300313B400C02121
:100B90002908B4000130B5002C22B02A4D2B2B2C93
:0C0BA000BA2C2908B300042DCD2D6300F1
:04400E00E42FFF3F5D
:00000001FF
;PIC16F887
;CRC=2502  CREATED="25-Oct-23 02:48"
