:1000000002308A00182A0000CD29532B3A10B2186A
:10001000B11AB119B01C000053283A102518B23A91
:10002000A021C1240000201320088316870083121A
:100030000713A012200883168700831287128316E5
:10004000880183122D088800A013200883168700DA
:1000500083128717A0132008831687008312871343
:100060008530F700F70B322808002D308400831309
:100070000008031948280230F800F701F70B3E2862
:10008000F80B3D289730F700F70B4428800B3B28EE
:100090000800201320088316870083120713A0127C
:1000A000200883168700831287168316880183121F
:1000B00031088800A0132008831687008312871751
:1000C000A013200883168700831287138530F7005A
:1000D000F70B682808003830AD0013200530AD005C
:1000E00035200C30AD0013200130AD00132002305C
:1000F000AD0035208030AD001320043003178D0093
:1001000000308F0003130B08AD008B138316031709
:100110008C170C140000000083120313AD1B8B1707
:1001200003170C087F390319D5280313AD000317F3
:100130000D080313AE0003170F080313AF002D08BB
:10014000B10049202E0803178D0003132F08031751
:100150008F0003130B08B0008B13831603178C1743
:100160000C140000000083120313B01B8B1703173D
:100170000C0D0E0D7F390319D5280313AD0003179D
:100180000D080313AE0003170F080313AF002D086B
:10019000B10049202E0803178D0003132F08031701
:1001A0008F008D0A03198F0A8228031308000B0899
:1001B000AE008B13831603178C170C14000000007D
:1001C00083120313AE1B8B1703180E2903170C0899
:1001D0007F390313AE0003170D080313AF00031795
:1001E0000F080313B0002E08B10049202F08031791
:1001F0008D000313300803178F0003130B08B100A1
:100200008B13831603178C170C1400000000831245
:100210000313B11B8B17AD0B0E292D2903170C0DE2
:100220000E0D7F390313AE0003170D080313AF0043
:1002300003170F080313B0002E08B10049202F0840
:1002400003178D000313300803178F008D0A03195D
:100250008F0A03100313AD0BD72808003008F801EC
:100260002F02031836292F08F7004229F70108301A
:10027000B100AF0DF70D300877020318F700F80D45
:10028000B10B3929080078082D08AF006430B000A0
:100290002E217708AD0078083030031D5629AE1C9A
:1002A0005D29AE195D292E1A20305929AE112E1262
:1002B0002E14F8077808B10049202D08AF000A3045
:1002C000B0002E217708AD0078083030031D6E296C
:1002D000AE1972292E1C72292E1A2030F8077808C0
:1002E000B10049203030AD072D08B1004920080089
:1002F000A508031DCC290F08FA000E08F7000F0807
:100300007A02031D7B297708A6002608103C0318F3
:100310008E298E018F0101308E000000C030AD00AB
:1003200013200C3003178D0000308F0003100430B1
:100330000313AD00D7202608AD000130AE004321E5
:10034000103003178D0000308F00031004300313AA
:10035000AD00D7202608AD00FF30FA00F9002D08C7
:10036000F7000319B8290310F90DFA0DF70BB3299B
:100370007908FF3AA100FF307A06A200FF30A300FF
:10038000A40083168501831221088500B20183161B
:1003900086018312220886008A110A12882A250BF8
:1003A000152A0C1CF1298E013C308F00B0308E00D4
:1003B0000000A70A0C1027080A3C031DF129A70119
:1003C000AA0A2A083B3C0318F129AA01A90A29080C
:1003D0003B3C0318F129A901A80A2808173C031C73
:1003E000A801C030AD0013202808AD000130AE00D8
:1003F00043212030B10049202D30B1004920203068
:10040000B10049202908AD000130AE004321203061
:10041000B10049202D30B10049202030B1004920E1
:100420002A08AD000130AE0043218A110A12892A40
:1004300003081F398300713083168F0090010F0865
:10044000FF308312A000A501A601A701A801A90100
:10045000AA01AC01AB01831603170908C039890052
:1004600003131F129F1200300317880083128701A5
:1004700088018901831300308316031385008600E9
:10048000013087008312A000003083168800091411
:100490008914091589158501831285018316860142
:1004A000831286016B20073090008E018F018E0130
:1004B00000008316091483120918872A1430AD002E
:1004C00035208316091483120918872AA5080319F1
:1004D0006B2A00306C2A0130A500250B7A2A6B208C
:1004E000253090008E013C308F00B0308E0000002F
:1004F0006B20822A6B209001073090008E018F01C3
:100500008E010000831609148312091C822A78299F
:06051000CF29592A630007
:04400E00E42FFF3F5D
:00000001FF
;PIC16F887
;CRC=09CC  CREATED="26-Oct-23 16:31"
