:1000000003308A006F2B00000A108A100A11820741
:10001000C034F934A434B034993492348234F8348E
:1000200080349034D330EE3320226137A018321060
:10003000CC224400D4307410C4306E103119202604
:1000400045220001D330EE332022E9316810311906
:10005000202645220001D4307410C4346334A01823
:100060003210CC224400D330EE3320226137A01866
:100070003210CC224400D4307410C4306E103119C8
:10008000202645220001D330EE332022E9316810CA
:100090003119202645220001D4307410C434633451
:1000A000A0183210CC2244002013200883168700A9
:1000B00083120713A0122008831687008312871269
:1000C0008316860183122D088600A013200883164C
:1000D000870083128717A0132008831687008312D6
:1000E00087138530F700F70B73280800323084003F
:1000F00083130008031989280230F800F701F70B71
:100100007F28F80B7E289730F700F70B8528800BA7
:100110007C2808003830AD0054200530B20076202D
:100120000C30AD0054200130AD0054200230B2003C
:1001300076200800201320088316870083120713F7
:10014000A012200883168700831287168316860163
:10015000831230088600A0132008831687008312BC
:100160008717A01320088316870083128713853012
:10017000F700F70BB92808000B08AD008B138316A6
:1001800003178C170C140000000083120313AD1B1F
:100190008B1703170C087F39031910290313AD00BF
:1001A00003170D080313AE0003170F080313AF0066
:1001B0002D08B0009A202E0803178D0003132F0876
:1001C00003178F0003130B08B0008B13831603175C
:1001D0008C170C140000000083120313B01B8B1744
:1001E00003170C0D0E0D7F39031910290313AD00F1
:1001F00003170D080313AE0003170F080313AF0016
:100200002D08B0009A202E0803178D0003132F0825
:1002100003178F008D0A03198F0A0313BC280317D5
:1002200003130800831817293D3084008313F70156
:10023000F801F901FA01BD01BE01BF01C0013C088E
:100240003B043A043904031955292030C100031036
:10025000B50DB60DB70DB80DBD0DBE0DBF0DC00D62
:100260003C084002031D3E293B083F02031D3E2976
:100270003A083E02031D3E2939083D02031C4F295E
:100280003908BD023A08031C3A0FBE023B08031CA2
:100290003B0FBF023C08031C3C0FC0020314F70DC8
:1002A000F80DF90DFA0DC10B27293D088000840ACD
:1002B0003E088000840A3F088000840A40088000CD
:1002C00008008A208130AD005420123003178D00C1
:1002D00000308F000313BC20C130AD0054201A3011
:1002E00003178D0000308F000313BC209530AD0044
:1002F0005420223003178D0000308F000313BC20E0
:10030000D530AD0054202B3003178D0000308F0006
:100310000313BC20220B92298030AD0054207E3084
:10032000B0009A202208023C031D9C29C030AD0079
:1003300054207E30B0009A202208033C031DA629D9
:100340009430AD0054207E30B0009A202208043C46
:10035000031DB029D430AD0054207E30B0009A2067
:1003600008008316091483120918CB291430B2002F
:1003700076208316091483120918CB29A20A2208B1
:10038000043C0318C5290130A20061218316091419
:100390008312091CC6298316891483128918E2293D
:1003A0001430B20076208316891483128918E2294A
:1003B000A20BDC290430A200612183168914831268
:1003C000891CDD298316091583120919582A14304E
:1003D000B20076208316091583120919582A643051
:1003E000A707003003180130A807003003180130B8
:1003F000A907003003180130AA07AA08031D0E2A16
:10040000A908031D0E2A2808023C0318132AFF3AE4
:10041000031D0E2A2708843C0318132AAA01A901E8
:10042000A8016430A70083102A08B8002908B70083
:100430002808B6002708B500BC01BB01BA0164302A
:10044000B90012217A08B0007908AF007808AE0030
:100450007708AD0083143130840083137A08B80024
:100460007908B7007808B6007708B500BC01BB0171
:10047000BA010A30B90012213408B0003308AF00C5
:100480003208AE003108AD00F7003208F80033083A
:10049000F9003408FA0077080420B50083168801B3
:1004A000831235088800831609158312091D532A03
:1004B0008A110A12192C0C30A100A11B9B2A0F30A3
:1004C000A400FF30A300A501A6012108B100031973
:1004D000702A0310A60CA50CA40CA30CB10B692A5E
:1004E00083168501831223088500B5010030A00022
:1004F000831687018312240887003008B100B10AEF
:10050000B1030319872AFF30B2007620802A2F0812
:10051000B2007620831609148312091C982A8316C8
:1005200089148312891C982A831609158312091DC0
:100530009B2AA1035D2A8A110A12292C0C30A100E2
:10054000A11BE32A0F30FA00FF30F9002108F70061
:100550000319AF2A0310FA0CF90CF70BAA2A790831
:10056000FF3AA300FF307A06A400FF30A500A600E2
:1005700083168501831223088500B5010030A00091
:10058000831687018312240887003008B100B10A5E
:10059000B1030319CF2AFF30B2007620C82A2F08F2
:1005A000B2007620831609148312091CE02A8316F0
:1005B00089148312891CE02A831609158312091DE8
:1005C000E32AA103A02A8A110A123B2C0C30A100B5
:1005D000A11B252B0830A400A301A501A601210819
:1005E000B1000319FA2A0310A60CA50CA40CA30C45
:1005F000B10BF32A83168501831223088500B50108
:100600000030A00083168701831224088700300879
:10061000B100B10AB1030319112BFF30B2007620EB
:100620000A2B2F08B2007620831609148312091CA6
:10063000222B831689148312891C222B83160915F9
:100640008312091D252BA103E82A8A110A124D2CB9
:100650000C30A100A11B6C2B0830FA00F901210815
:10066000F7000319382B0310FA0CF90CF70B332B96
:100670007908FF3AA300FF307A06A400FF30A500F6
:10068000A60083168501831223088500B50100307A
:10069000A000831687018312240887003008B10068
:1006A000B10AB1030319582BFF30B2007620512B49
:1006B0002F08B2007620831609148312091C692BB7
:1006C000831689148312891C692B831609158312DA
:1006D000091D6C2BA1032A2B8A110A125F2C030817
:1006E0001F398300713083168F0090010F08FF308F
:1006F0008312A0000130A200AA01A901A801643060
:10070000A700AC01AB01831603170908C0398900A3
:1007100003131F129F1200300317880083128701F2
:100720008801890183130030831603138500870035
:100730008312A00083168600880009148914091505
:100740008915850183128501A00083168701831214
:1007500087018A208030AD0054207E30B0009A207E
:100760008130AD005420333003178D0000308F00EE
:100770000313BC20C130AD0054203B3003178D0063
:1007800000308F000313BC209530AD00542043305F
:1007900003178D0000308F000313BC20D530AD004F
:1007A00054204C3003178D0000308F000313BC2001
:1007B00083102A08B8002908B7002808B6002708BF
:1007C000B500BC01BB01BA016430B90012217A083E
:1007D000B0007908AF007808AE007708AD00831448
:1007E0003130840083137A08B8007908B70078089C
:1007F000B6007708B500BC01BB01BA010A30B900E8
:1008000012213408B0003308AF003208AE003108BE
:10081000AD00F7003208F8003308F9003408FA0098
:1008200077080420B50083168801831235088800F4
:10083000B129220B292C2708E83CAD000330AE007B
:100840002808031C280FAE022E08B0002D08AF00A8
:100850005B2A2208023C031D3B2C2708E83CAD0024
:100860000330AE002808031C280FAE022E08B0008B
:100870002D08AF009E2A2208033C031D4D2C27089B
:10088000E83CAD000330AE002808031C280FAE0280
:100890002E08B0002D08AF00E62A2208043C031DF4
:1008A0005F2C2708E83CAD000330AE002808031C8D
:1008B000280FAE022E08B0002D08AF00282B182CF0
:0208C0006300D3
:04400E00E42FFF3F5D
:00000001FF
;PIC16F887
;CRC=7386  CREATED="16-Oct-23 20:26"
