:1000000003308A004E2B00000A108A100A11820762
:10001000C034F934A434B034993492348234F8348E
:1000200080349034D330EE3320226137A018321060
:10003000CC224400D4307410C4306E103119202604
:1000400045220001D330EE332022E9316810311906
:10005000202645220001D4307410C4346334A01823
:100060003210CC224400201320088316870083120C
:100070000713A012200883168700831287128316A5
:10008000860183122D088600A0132008831687009E
:1000900083128717A0132008831687008312871303
:1000A0008530F700F70B52280800323084008313A4
:1000B0000008031968280230F800F701F70B5E28E2
:1000C000F80B5D289730F700F70B6428800B5B284E
:1000D00008003830AD0033200530B20055200C3018
:1000E000AD0033200130AD0033200230B200552086
:1000F000080083187E283D3084008313F701F8013F
:10010000F901FA01BD01BE01BF01C0013C083B0479
:100110003A0439040319BC282030C1000310B50D7E
:10012000B60DB70DB80DBD0DBE0DBF0DC00D3C0811
:100130004002031DA5283B083F02031DA5283A08DD
:100140003E02031DA52839083D02031CB6283908C4
:10015000BD023A08031C3A0FBE023B08031C3B0FCA
:10016000BF023C08031C3C0FC0020314F70DF80D3E
:10017000F90DFA0DC10B8E283D088000840A3E0857
:100180008000840A3F088000840A4008800008003C
:10019000201320088316870083120713A01220085B
:1001A0008316870083128716831686018312300810
:1001B0008600A01320088316870083128717A013D8
:1001C000200883168700831287138530F700F70B0A
:1001D000E72808000B08AD008B13831603178C1754
:1001E0000C140000000083120313AD1B8B170317C0
:1001F0000C087F3903193E290313AD0003170D08BE
:100200000313AE0003170F080313AF002D08B0004F
:10021000C8202E0803178D0003132F0803178F0023
:1002200003130B08B0008B13831603178C170C14E1
:100230000000000083120313B01B8B1703170C0D73
:100240000E0D7F3903193E290313AD0003170D0866
:100250000313AE0003170F080313AF002D08B000FF
:10026000C8202E0803178D0003132F0803178F00D3
:100270008D0A03198F0A0313EA28031703130800D2
:1002800069208130AD003320123003178D0000301B
:100290008F000313EA20C130AD0033201A3003175A
:1002A0008D0000308F000313EA209530AD0033201D
:1002B000223003178D0000308F000313EA20D53061
:1002C000AD0033202B3003178D0000308F00031357
:1002D000EA20220B71298030AD0033207E30B0003F
:1002E000C8202208023C031D7B29C030AD0033200A
:1002F0007E30B000C8202208033C031D85299430BD
:10030000AD0033207E30B000C8202208043C031D1D
:100310008F29D430AD0033207E30B000C8200800D3
:100320008316091483120918AA291430B200552023
:100330008316091483120918AA29A20A2208043C68
:100340000318A4290130A200402183160914831246
:10035000091CA5298316891483128918C129143010
:10036000B20055208316891483128918C129A20B63
:10037000BB290430A2004021831689148312891CF2
:10038000BC298316091583120919372A1430B200C3
:1003900055208316091583120919372A6430A707D7
:1003A000003003180130A807003003180130A907F6
:1003B000003003180130AA07AA08031DED29A90877
:1003C000031DED292808023C0318F229FF3A031DFA
:1003D000ED292708843C0318F229AA01A901A801E4
:1003E0006430A70083102A08B8002908B70028083D
:1003F000B6002708B500BC01BB01BA016430B900E2
:1004000079207A08B0007908AF007808AE00770844
:10041000AD0083143130840083137A08B800790862
:10042000B7007808B6007708B500BC01BB01BA0177
:100430000A30B90079203408B0003308AF00320820
:10044000AE003108AD00F7003208F8003308F900BB
:100450003408FA0077080420B50083168801831257
:1004600035088800831609158312091D322A8A115E
:100470000A12CE2B0C30A100A11B7A2A0F30A40047
:10048000FF30A300A501A6012108B10003194F2ADE
:100490000310A60CA50CA40CA30CB10B482A8316C0
:1004A0008501831223088500B5010030A000831662
:1004B00087018312240887003008B100B10AB10314
:1004C0000319662AFF30B20055205F2A2F08B200B8
:1004D0005520831609148312091C772A8316891460
:1004E0008312891C772A831609158312091D7A2A1B
:1004F000A1033C2A8A110A12DE2B0C30A100A11B99
:10050000C22A0F30FA00FF30F9002108F700031962
:100510008E2A0310FA0CF90CF70B892A7908FF3A96
:10052000A300FF307A06A400FF30A500A6008316C2
:100530008501831223088500B5010030A0008316D1
:1005400087018312240887003008B100B10AB10383
:100550000319AE2AFF30B2005520A72A2F08B20097
:100560005520831609148312091CBF2A8316891487
:100570008312891CBF2A831609158312091DC22AFA
:10058000A1037F2A8A110A12F02B0C30A100A11BB3
:10059000042B0830A400A301A501A6012108B10085
:1005A0000319D92A0310A60CA50CA40CA30CB10B9B
:1005B000D22A83168501831223088500B5010030F5
:1005C000A000831687018312240887003008B10039
:1005D000B10AB1030319F02AFF30B2005520E92A0D
:1005E0002F08B2005520831609148312091C012B11
:1005F000831689148312891C012B83160915831213
:10060000091D042BA103C72A8A110A12022C0C30DF
:10061000A100A11B4B2B0830FA00F9012108F700BB
:100620000319172B0310FA0CF90CF70B122B79088E
:10063000FF3AA300FF307A06A400FF30A500A60011
:1006400083168501831223088500B5010030A000C0
:10065000831687018312240887003008B100B10A8D
:10066000B1030319372BFF30B2005520302B2F0870
:10067000B2005520831609148312091C482B8316D7
:1006800089148312891C482B831609158312091DAE
:100690004B2BA103092B8A110A12142C03081F39B2
:1006A0008300713083168F0090010F08FF30831292
:1006B000A0000130A200AA01A901A8016430A7008E
:1006C000AC01AB01831603170908C0398900031375
:1006D0001F129F12003003178800831287018801C0
:1006E000890183130030831603138500870083126A
:1006F000A00083168600880009148914091589153D
:10070000850183128501A00083168701831287016A
:1007100069208030AD00332083102A08B8002908F2
:10072000B7002808B6002708B500BC01BB01BA0114
:100730006430B90079207A08B0007908AF007808F1
:10074000AE007708AD0083143130840083137A083B
:10075000B8007908B7007808B6007708B500BC0182
:10076000BB01BA010A30B90079203408B00033085F
:10077000AF003208AE003108AD00F7003208F800D3
:100780003308F9003408FA0077080420B50083160E
:10079000880183123508880040219029220BDE2B26
:1007A0002708E83CAD000330AE002808031C280FE2
:1007B000AE022E08B0002D08AF003A2A2208023CF3
:1007C000031DF02B2708E83CAD000330AE002808DD
:1007D000031C280FAE022E08B0002D08AF007D2AA2
:1007E0002208033C031D022C2708E83CAD0003301F
:1007F000AE002808031C280FAE022E08B0002D08FA
:10080000AF00C52A2208043C031D142C2708E83C2D
:10081000AD000330AE002808031C280FAE022E08DE
:0C082000B0002D08AF00072BCC2B6300AC
:04400E00E42FFF3F5D
:00000001FF
;PIC16F887
;CRC=40EC  CREATED="26-Oct-23 12:38"
