:1000000003308A002C2B0000FF00030E8301A100A7
:100010000A08A0008A010408A2007708A300780853
:10002000A4007908A5007A08A60003170D08031399
:10003000A70003170F080313A80003170C080313E6
:10004000A90003170E080313AA00831383128C3030
:100050008400801E2D288C1A4E2822088400230834
:10006000F7002408F8002508F9002608FA002708F8
:1000700003178D000313280803178F0003132908A3
:1000800003178C0003132A0803178E00031320089C
:100090008A00210E8300FF0E7F0E09008A110A12CA
:1000A0006328C4224D1053283A102518B23AA021D3
:1000B000C12400004E24C9225410C4273A10251828
:1000C000323675104300AD08031D6A288C1E662861
:1000D0001A08AC002D0B71288C1E6C281A08B2016E
:1000E000B1002D08023C031D79288C1E75281A08C2
:1000F000AE00AD0A2D08023C031CAD018C128A1122
:100100000A122D280330C002031C902840308400BE
:1001100083130008031990288E288E28800B8D28C1
:100120000800831686108312861083160610831229
:10013000061083168801831236088800831606117C
:10014000831206158316061183120611C830C000EB
:100150008220080036308400831300080319BD286C
:100160000630F800F701F70BB328F80BB2287B3004
:10017000F700F70BB928800BB02808003830B6001C
:1001800091200530B600AA200C30B6009120013035
:10019000B60091200230B600AA208A110A12602B04
:1001A0000F08FA000E08F7000F087A02031DD02886
:1001B0007708AB002B08183C0318E3288E018F0149
:1001C00001308E0000002B080C1EE42899008A11D3
:1001D0000A12AC2B1030F8001F08C33978049F00B6
:1001E0000130B600AA209F149F18F4281E08F900B9
:1001F00083161E08F80079088312B7007808B60045
:100200003708B9003608B8008E30F7003908F80012
:100210003808F900FA01F808031D18297908F800D0
:10022000F9010830F702F808031D1829F701202901
:100230000310F81B1F29F90DF80DF7031829F813FF
:100240007A08BB007908BA007808B9007708B800C6
:100250003530BF005E30BE007A30BD007D30BC005E
:1002600038080319A029C0003C080319A029C007B9
:10027000031841297F30C002031CA0290319A029BB
:1002800045298130C0070318A0294008F700F8016C
:10029000F901FA013908C400C4173A08C3003B0841
:1002A000C2001830C000C101421C6E293F08FA0785
:1002B000031C6029F90A031D6029F80A0319C117F4
:1002C0003E08F907031C6729F80A0319C1173D08FE
:1002D000BA00BA173A08F8070318C117C10DF80C8D
:1002E000F90CFA0CC40CC30CC20C0310C00B53293C
:1002F0000130F7070318A029F81B8529C40DFA0D52
:10030000F90DF80DF7030319A029C41F9629FA0A5D
:10031000031D9629F90A031D9629F80A031D96293B
:10032000F80CF90CFA0CF70A0319A0293908C100D6
:100330003D08C106C11F9E29F817A429F813A42956
:10034000F701F801F901FA017A08B9007908B80053
:100350007808B7007708B6008E30F7003608F70245
:100360003708F9003808F800F917F7080319C32906
:100370000310F908031DBF29F8080319C329F90C54
:10038000F80CF70BB829B71FCA29F809F909F80AB8
:100390000319F90A7908B0007808AF002F080C1E7D
:1003A000CF2999008A110A12AD2B83168610831269
:1003B0008610831606108312061483168801831292
:1003C0003F0888008316061183120615831606114E
:1003D00083120611C830C000822008000B08B70045
:1003E0008B13831603178C170C1400000000831264
:1003F0000313B71B8B170318252A03170C087F3923
:100400000313B70003170D080313B80003170F08F1
:100410000313B9003708BF00D521380803178D0032
:100420000313390803178F0003130B08BA008B134B
:10043000831603178C170C1400000000831203139B
:10044000BA1B8B17B60B252A442A03170C0D0E0D69
:100450007F390313B70003170D080313B800031700
:100460000F080313B9003708BF00D5213808031758
:100470008D000313390803178F008D0A03198F0AA3
:1004800003100313B60BEE2908003908F8013802EF
:1004900003184D2A3808F700592AF7010830BA0026
:1004A000B80DF70D390877020318F700F80DBA0BED
:1004B000502A08008030B6009120513003178D007B
:1004C00000308F00031008300313B600EE212C0813
:1004D000B6000130B7003608B8006430B9004522D4
:1004E0007708B60078083030031D7D2AB71C842AAF
:1004F000B719842A371A2030802AB71137123714D7
:10050000F8077808BF00D5213608B8000A30B900CE
:1005100045227708B60078083030031D952AB719B0
:10052000992A371C992A371A2030F8077808BF0013
:10053000D5213030B6073608BF00D5215730031714
:100540008D0000308F00031004300313B600EE213D
:10055000C030B60091205A3003178D0000308F0054
:1005600003100A300313B600EE210B30840032086A
:10057000B7003108B600BE010408BD003E10831B61
:100580003E14370EF038B900B907E23EBA00323EE9
:10059000BC0037080F39BA07BA07BC07E93EBB00F1
:1005A000BB07BB07360E0F39BB07BC07BB0DBC0D25
:1005B000BC09BC0D36080F39BC07B90D0730B800AF
:1005C0000A30BC07BB03031CE12ABB07BA03031CA8
:1005D000E52ABA07B903031CE92AB907B803031CC3
:1005E000ED2A38308400831307303D053D1384071E
:1005F0003C30040203193D170008F700031D082BC7
:100600003D1B082B3D1A1A2BBD19082B20300B2B34
:10061000BD153D123030F707B7010408B60037109A
:10062000831B37147708BF00D52136088400831355
:1006300037188317840A3D1FF82A2030BF00D521C0
:100640004330BF00D521CC30B6009120DF30BF0051
:10065000D5218A110A12AE2B03081F398300831695
:100660000317871508300313990002309A00A6304B
:100670009800903083129800AD01B401B301FF30AF
:10068000B500831603170908C039890003131F1228
:100690009F120030031788008312870188018901A7
:1006A0008313FF30831603138500003086008130EA
:1006B00087008312B5000030831688008312BE289D
:1006C000073090008E018F018E0100000030F8008D
:1006D00006389200F93083169200831235113508DE
:1006E00083168700831207110C30970083169B0135
:1006F0009C0101309D008312B510350883168700D8
:10070000831287103408F9003308F800F90CF80C4C
:10071000F90CF80CF90C78089500F90C790C3039C3
:10072000F7001708CF39770497001F139F17831618
:100730009F1783121F14831603170908C0398900F5
:1007400003131F129F1210300317880003138C1617
:10075000C03083128B04D028EA285A2AB208031D1D
:10076000B82B3108323C031CB82BB401C830B3009D
:10077000B208031DBF2B3108323C0318CA2BB20844
:10078000031DCA2B3108643C031CCA2B0230B40081
:10079000EE30B300B208031DD12B3108643C0318BE
:1007A000D52B0330B400E830B3002E0BEB2B34080C
:1007B000F9003308F800F90CF80CF90CF80CF90CF6
:1007C00078089500F90C790C3039F7001708CF3903
:1007D00077049700EF2B95011708CF399700AB2BC3
:0207E0006300B4
:04400E00E22FFF3F5F
:00000001FF
;PIC16F887
;CRC=1E34  CREATED="24-Nov-23 15:01"
