:1000000002308A002D2A0000FF00030E8301A100A8
:100010000A08A0008A010408A2007708A300780853
:10002000A4007908A5007A08A600831383128C30F7
:100030008400801E1D288C1A2E2822088400230884
:10004000F7002408F8002508F9002608FA0020081F
:100050008A00210E8300FF0E7F0E09008A110A120A
:100060003F280A108A100A118207C034F934A434D8
:10007000B034993492348234F83480349034AA08FD
:10008000031D46288C1E42281A08A9002A0B4D2859
:100090008C1E48281A08AE01AD00AA0A2A08013CA5
:1000A000031CAA018C128A110A121D283208F801B9
:1000B000310203185E283108F7006A28F70108307A
:1000C000B300B10DF70D320877020318F700F80DF1
:1000D000B30B612808003030840083130008031933
:1000E0007E280630F800F701F70B7428F80B732808
:1000F0007B30F700F70B7A28800B71280800F80195
:10010000F901F701FA013508031D8928340803199C
:10011000A3281030B6000310B20DB30DF70DFA0D81
:1001200035087A02031D962834087702031C9F289D
:100130003408F702031CFA033508FA020314F80D19
:10014000F90DB60B8B2808002908B1000A30B2005F
:1001500056207808B1000A30B200562077083120C6
:10016000B0008316880183123008880083160610B9
:10017000831206100130B0006B2083160610831224
:1001800006142908B1000A30B20056207708312041
:10019000B000831688018312300888008316861009
:1001A000831286100130B0006B20831686108312F4
:1001B00086142E08B3002D08B200B5010A30B40031
:1001C0007F207908B1007808B0007908B30078087A
:1001D000B200B5010A30B4007F207708B0007A0879
:1001E000B100FA0077083120B2008316880183122B
:1001F0003208880083160611831206110130B00000
:100200006B2083160611831206152E08B3002D08E5
:10021000B200B5010A30B4007F207708B0007A0838
:10022000B100FA0077083120B200831688018312EA
:100230003208880083168611831286110130B000BF
:100240006B2083168611831286158A110A127C2A66
:100250000F08FA000E08F7000F087A02031D28297C
:100260007708183CA800A808031D3B298E018F01C0
:1002700001308E00000028080C1E3C2999008A11CC
:100280000A127D2A1030F8001F08C33978049F0035
:100290000130B0006B209F149F184C291E08F900F4
:1002A00083161E08F80079088312B1007808B000A0
:1002B0003108B3003008B2008E30F7003308F80080
:1002C0003208F900FA01F808031D70297908F800CE
:1002D000F9010830F702F808031D7029F7017829A1
:1002E0000310F81B7729F90DF80DF7037029F8139F
:1002F0007A08B5007908B4007808B3007708B2002E
:100300003530B9005E30B8007A30B7007D30B600C5
:1003100032080319F829BA0036080319F829BA0770
:10032000031899297F30BA02031CF8290319F82908
:100330009D298130BA070318F8293A08F700F80117
:10034000F901FA013308BE00BE173408BD003508B4
:10035000BC001830BA00BB013C1CC6293908FA079A
:10036000031CB829F90A031DB829F80A0319BB1799
:100370003808F907031CBF29F80A0319BB17370807
:10038000B400B4173408F8070318BB17BB0DF80CFA
:10039000F90CFA0CBE0CBD0CBC0C0310BA0BAB294B
:1003A0000130F7070318F829F81BDD29BE0DFA0DF7
:1003B000F90DF80DF7030319F829BE1FEE29FA0A03
:1003C000031DEE29F90A031DEE29F80A031DEE2983
:1003D000F80CF90CFA0CF70A0319F8293308BB00DA
:1003E0003708BB06BB1FF629F817FC29F813FC29B0
:1003F000F701F801F901FA017A08B3007908B200AF
:100400007808B1007708B0008E30F7003008F702A6
:100410003108F9003208F800F917F70803191B2A08
:100420000310F908031D172AF80803191B2AF90CF1
:10043000F80CF70B102AB11F222AF809F909F80A5B
:100440000319F90A7908AC007808AB002B080C1ED8
:10045000272A99008A110A127E2A03081F3983006D
:1004600083160317871508300313990002309A008A
:10047000A63098009030831298002710AA01FF3010
:10048000AF00831603170908C039890003131F1230
:100490009F120030031788008312870188018901A9
:1004A0008313FF30831603138500003086008130EC
:1004B00087008312AF000030831688000730831254
:1004C00090008E018F018E0100001F139F1783166D
:1004D0009F1783121F14831603170908C039890058
:1004E00003131F129F1210300317880003138C167A
:1004F000C03083128B04A4282829422983160914AA
:1005000083120918982A1430B0006B20831609143E
:1005100083120918982A0130A706003027180130E5
:100520000C1E902A9900831609148312091C932A21
:040530007B2A6300BF
:04400E00E22FFF3F5F
:00000001FF
;PIC16F887
;CRC=EA0B  CREATED="24-Nov-23 15:01"
